{
  "address": "0x31019DDf46480F850065FeBcd07b8ad652DdeB47",
  "abi": [
    {
      "inputs": [],
      "stateMutability": "nonpayable",
      "type": "constructor"
    },
    {
      "anonymous": false,
      "inputs": [
        {
          "indexed": true,
          "internalType": "address",
          "name": "owner",
          "type": "address"
        },
        {
          "indexed": true,
          "internalType": "address",
          "name": "spender",
          "type": "address"
        },
        {
          "indexed": false,
          "internalType": "uint256",
          "name": "value",
          "type": "uint256"
        }
      ],
      "name": "Approval",
      "type": "event"
    },
    {
      "anonymous": false,
      "inputs": [
        {
          "indexed": true,
          "internalType": "address",
          "name": "account",
          "type": "address"
        },
        {
          "indexed": false,
          "internalType": "string",
          "name": "avatarURI",
          "type": "string"
        }
      ],
      "name": "AvatarCreated",
      "type": "event"
    },
    {
      "anonymous": false,
      "inputs": [
        {
          "indexed": true,
          "internalType": "address",
          "name": "account",
          "type": "address"
        },
        {
          "indexed": false,
          "internalType": "string",
          "name": "avatarURI",
          "type": "string"
        }
      ],
      "name": "AvatarUpdated",
      "type": "event"
    },
    {
      "anonymous": false,
      "inputs": [
        {
          "indexed": true,
          "internalType": "address",
          "name": "account",
          "type": "address"
        }
      ],
      "name": "NFTDeRegistered",
      "type": "event"
    },
    {
      "anonymous": false,
      "inputs": [
        {
          "indexed": true,
          "internalType": "address",
          "name": "account",
          "type": "address"
        }
      ],
      "name": "NFTRegistered",
      "type": "event"
    },
    {
      "anonymous": false,
      "inputs": [
        {
          "indexed": true,
          "internalType": "address",
          "name": "previousOwner",
          "type": "address"
        },
        {
          "indexed": true,
          "internalType": "address",
          "name": "newOwner",
          "type": "address"
        }
      ],
      "name": "OwnershipTransferred",
      "type": "event"
    },
    {
      "anonymous": false,
      "inputs": [
        {
          "indexed": true,
          "internalType": "address",
          "name": "account",
          "type": "address"
        },
        {
          "indexed": false,
          "internalType": "string",
          "name": "profileURI",
          "type": "string"
        }
      ],
      "name": "ProfileCreated",
      "type": "event"
    },
    {
      "anonymous": false,
      "inputs": [
        {
          "indexed": true,
          "internalType": "address",
          "name": "account",
          "type": "address"
        },
        {
          "indexed": false,
          "internalType": "string",
          "name": "profileURI",
          "type": "string"
        }
      ],
      "name": "ProfileUpdated",
      "type": "event"
    },
    {
      "anonymous": false,
      "inputs": [
        {
          "indexed": true,
          "internalType": "address",
          "name": "account",
          "type": "address"
        },
        {
          "indexed": false,
          "internalType": "uint256",
          "name": "amount",
          "type": "uint256"
        }
      ],
      "name": "ServiceDonated",
      "type": "event"
    },
    {
      "anonymous": false,
      "inputs": [
        {
          "indexed": true,
          "internalType": "address",
          "name": "from",
          "type": "address"
        },
        {
          "indexed": true,
          "internalType": "address",
          "name": "to",
          "type": "address"
        },
        {
          "indexed": false,
          "internalType": "uint256",
          "name": "value",
          "type": "uint256"
        }
      ],
      "name": "Transfer",
      "type": "event"
    },
    {
      "inputs": [
        {
          "internalType": "address",
          "name": "owner",
          "type": "address"
        },
        {
          "internalType": "address",
          "name": "spender",
          "type": "address"
        }
      ],
      "name": "allowance",
      "outputs": [
        {
          "internalType": "uint256",
          "name": "",
          "type": "uint256"
        }
      ],
      "stateMutability": "view",
      "type": "function"
    },
    {
      "inputs": [
        {
          "internalType": "address",
          "name": "spender",
          "type": "address"
        },
        {
          "internalType": "uint256",
          "name": "amount",
          "type": "uint256"
        }
      ],
      "name": "approve",
      "outputs": [
        {
          "internalType": "bool",
          "name": "",
          "type": "bool"
        }
      ],
      "stateMutability": "nonpayable",
      "type": "function"
    },
    {
      "inputs": [
        {
          "internalType": "address",
          "name": "",
          "type": "address"
        }
      ],
      "name": "avatarNFTs",
      "outputs": [
        {
          "internalType": "address",
          "name": "_contract",
          "type": "address"
        },
        {
          "internalType": "uint256",
          "name": "tokenId",
          "type": "uint256"
        },
        {
          "internalType": "bool",
          "name": "isERC721",
          "type": "bool"
        }
      ],
      "stateMutability": "view",
      "type": "function"
    },
    {
      "inputs": [
        {
          "internalType": "address",
          "name": "account",
          "type": "address"
        }
      ],
      "name": "balanceOf",
      "outputs": [
        {
          "internalType": "uint256",
          "name": "",
          "type": "uint256"
        }
      ],
      "stateMutability": "view",
      "type": "function"
    },
    {
      "inputs": [],
      "name": "baseURI",
      "outputs": [
        {
          "internalType": "string",
          "name": "",
          "type": "string"
        }
      ],
      "stateMutability": "view",
      "type": "function"
    },
    {
      "inputs": [],
      "name": "deRegisterNFT",
      "outputs": [],
      "stateMutability": "nonpayable",
      "type": "function"
    },
    {
      "inputs": [],
      "name": "decimals",
      "outputs": [
        {
          "internalType": "uint8",
          "name": "",
          "type": "uint8"
        }
      ],
      "stateMutability": "view",
      "type": "function"
    },
    {
      "inputs": [
        {
          "internalType": "address",
          "name": "spender",
          "type": "address"
        },
        {
          "internalType": "uint256",
          "name": "subtractedValue",
          "type": "uint256"
        }
      ],
      "name": "decreaseAllowance",
      "outputs": [
        {
          "internalType": "bool",
          "name": "",
          "type": "bool"
        }
      ],
      "stateMutability": "nonpayable",
      "type": "function"
    },
    {
      "inputs": [],
      "name": "donate",
      "outputs": [],
      "stateMutability": "payable",
      "type": "function"
    },
    {
      "inputs": [
        {
          "internalType": "address",
          "name": "account",
          "type": "address"
        }
      ],
      "name": "getAvatar",
      "outputs": [
        {
          "internalType": "string",
          "name": "",
          "type": "string"
        }
      ],
      "stateMutability": "view",
      "type": "function"
    },
    {
      "inputs": [
        {
          "internalType": "address",
          "name": "account",
          "type": "address"
        }
      ],
      "name": "getProfile",
      "outputs": [
        {
          "internalType": "string",
          "name": "",
          "type": "string"
        }
      ],
      "stateMutability": "view",
      "type": "function"
    },
    {
      "inputs": [
        {
          "internalType": "address",
          "name": "spender",
          "type": "address"
        },
        {
          "internalType": "uint256",
          "name": "addedValue",
          "type": "uint256"
        }
      ],
      "name": "increaseAllowance",
      "outputs": [
        {
          "internalType": "bool",
          "name": "",
          "type": "bool"
        }
      ],
      "stateMutability": "nonpayable",
      "type": "function"
    },
    {
      "inputs": [],
      "name": "name",
      "outputs": [
        {
          "internalType": "string",
          "name": "",
          "type": "string"
        }
      ],
      "stateMutability": "view",
      "type": "function"
    },
    {
      "inputs": [],
      "name": "owner",
      "outputs": [
        {
          "internalType": "address",
          "name": "",
          "type": "address"
        }
      ],
      "stateMutability": "view",
      "type": "function"
    },
    {
      "inputs": [
        {
          "internalType": "address",
          "name": "_contract",
          "type": "address"
        },
        {
          "internalType": "uint256",
          "name": "tokenId",
          "type": "uint256"
        },
        {
          "internalType": "bool",
          "name": "isERC721",
          "type": "bool"
        }
      ],
      "name": "registerNFT",
      "outputs": [],
      "stateMutability": "nonpayable",
      "type": "function"
    },
    {
      "inputs": [],
      "name": "renounceOwnership",
      "outputs": [],
      "stateMutability": "nonpayable",
      "type": "function"
    },
    {
      "inputs": [
        {
          "internalType": "string",
          "name": "avatarHash",
          "type": "string"
        }
      ],
      "name": "setAvatar",
      "outputs": [],
      "stateMutability": "nonpayable",
      "type": "function"
    },
    {
      "inputs": [
        {
          "internalType": "string",
          "name": "profileHash",
          "type": "string"
        }
      ],
      "name": "setProfile",
      "outputs": [],
      "stateMutability": "nonpayable",
      "type": "function"
    },
    {
      "inputs": [],
      "name": "symbol",
      "outputs": [
        {
          "internalType": "string",
          "name": "",
          "type": "string"
        }
      ],
      "stateMutability": "view",
      "type": "function"
    },
    {
      "inputs": [],
      "name": "totalSupply",
      "outputs": [
        {
          "internalType": "uint256",
          "name": "",
          "type": "uint256"
        }
      ],
      "stateMutability": "view",
      "type": "function"
    },
    {
      "inputs": [
        {
          "internalType": "address",
          "name": "recipient",
          "type": "address"
        },
        {
          "internalType": "uint256",
          "name": "amount",
          "type": "uint256"
        }
      ],
      "name": "transfer",
      "outputs": [
        {
          "internalType": "bool",
          "name": "",
          "type": "bool"
        }
      ],
      "stateMutability": "nonpayable",
      "type": "function"
    },
    {
      "inputs": [
        {
          "internalType": "address",
          "name": "sender",
          "type": "address"
        },
        {
          "internalType": "address",
          "name": "recipient",
          "type": "address"
        },
        {
          "internalType": "uint256",
          "name": "amount",
          "type": "uint256"
        }
      ],
      "name": "transferFrom",
      "outputs": [
        {
          "internalType": "bool",
          "name": "",
          "type": "bool"
        }
      ],
      "stateMutability": "nonpayable",
      "type": "function"
    },
    {
      "inputs": [
        {
          "internalType": "address",
          "name": "newOwner",
          "type": "address"
        }
      ],
      "name": "transferOwnership",
      "outputs": [],
      "stateMutability": "nonpayable",
      "type": "function"
    },
    {
      "inputs": [
        {
          "internalType": "string",
          "name": "avatarHash",
          "type": "string"
        }
      ],
      "name": "updateAvatar",
      "outputs": [],
      "stateMutability": "nonpayable",
      "type": "function"
    },
    {
      "inputs": [
        {
          "internalType": "string",
          "name": "profileHash",
          "type": "string"
        }
      ],
      "name": "updateProfile",
      "outputs": [],
      "stateMutability": "nonpayable",
      "type": "function"
    },
    {
      "inputs": [],
      "name": "withdraw",
      "outputs": [],
      "stateMutability": "nonpayable",
      "type": "function"
    }
  ],
  "transactionHash": "0xc250d0474505fbaab666c817703bbbbcd5c060a3df3a03652aee3cd71837f0a8",
  "args": [],
  "solcInputHash": "b9147163c5c6b84a56cc84ce9c7693dd",
  "bytecode": "0x60c0604052601560808190527f68747470733a2f2f697066732e696f2f697066732f000000000000000000000060a090815262000040916006919062000144565b503480156200004e57600080fd5b506040518060400160405280601c81526020017f426c6f636b636861696e20526567697374657265642041766174617200000000815250604051806040016040528060048152602001634243524160e01b815250620000bc620000b6620000f060201b60201c565b620000f4565b8151620000d190600490602085019062000144565b508051620000e790600590602084019062000144565b50505062000227565b3390565b600080546001600160a01b038381166001600160a01b0319831681178455604051919092169283917f8be0079c531659141344cd1fd0a4f28419497f9722a3daafe3b4186f6b6457e09190a35050565b8280546200015290620001ea565b90600052602060002090601f016020900481019282620001765760008555620001c1565b82601f106200019157805160ff1916838001178555620001c1565b82800160010185558215620001c1579182015b82811115620001c1578251825591602001919060010190620001a4565b50620001cf929150620001d3565b5090565b5b80821115620001cf5760008155600101620001d4565b600181811c90821680620001ff57607f821691505b602082108114156200022157634e487b7160e01b600052602260045260246000fd5b50919050565b611c1580620002376000396000f3fe6080604052600436106101805760003560e01c8063715018a6116100d1578063a9059cbb1161008a578063dd62ed3e11610064578063dd62ed3e1461049f578063ed88c68e146104e5578063f2fde38b146104ed578063fd4485b91461050d57600080fd5b8063a9059cbb1461043f578063ce8ac0331461045f578063dbd183831461047f57600080fd5b8063715018a61461033d57806385f75293146103525780638da5cb5b146103c257806395d89b41146103ea5780639fe958b9146103ff578063a457c2d71461041f57600080fd5b806323b872dd1161013e5780633ccfd60b116101185780633ccfd60b146102bd5780636c0360eb146102d25780636ec5239f146102e757806370a082311461030757600080fd5b806323b872dd14610261578063313ce56714610281578063395093511461029d57600080fd5b80629299e31461018557806306fdde03146101a7578063095ea7b3146101d25780630f53a4701461020257806318160ddd14610222578063235b37b114610241575b600080fd5b34801561019157600080fd5b506101a56101a03660046118b7565b610522565b005b3480156101b357600080fd5b506101bc6105ee565b6040516101c99190611a68565b60405180910390f35b3480156101de57600080fd5b506101f26101ed366004611847565b610680565b60405190151581526020016101c9565b34801561020e57600080fd5b506101bc61021d366004611790565b610696565b34801561022e57600080fd5b506003545b6040519081526020016101c9565b34801561024d57600080fd5b506101a561025c3660046118b7565b61071d565b34801561026d57600080fd5b506101f261027c366004611807565b6107d2565b34801561028d57600080fd5b50604051601281526020016101c9565b3480156102a957600080fd5b506101f26102b8366004611847565b61087c565b3480156102c957600080fd5b506101a56108b8565b3480156102de57600080fd5b506101bc610965565b3480156102f357600080fd5b506101a56103023660046118b7565b6109f3565b34801561031357600080fd5b50610233610322366004611790565b6001600160a01b031660009081526001602052604090205490565b34801561034957600080fd5b506101a5610aa8565b34801561035e57600080fd5b5061039b61036d366004611790565b600a602052600090815260409020805460018201546002909201546001600160a01b03909116919060ff1683565b604080516001600160a01b03909416845260208401929092521515908201526060016101c9565b3480156103ce57600080fd5b506000546040516001600160a01b0390911681526020016101c9565b3480156103f657600080fd5b506101bc610ade565b34801561040b57600080fd5b506101a561041a3660046118b7565b610aed565b34801561042b57600080fd5b506101f261043a366004611847565b610b9c565b34801561044b57600080fd5b506101f261045a366004611847565b610c35565b34801561046b57600080fd5b506101bc61047a366004611790565b610c42565b34801561048b57600080fd5b506101a561049a366004611872565b610ebc565b3480156104ab57600080fd5b506102336104ba3660046117cf565b6001600160a01b03918216600090815260026020908152604080832093909416825291909152205490565b6101a56110de565b3480156104f957600080fd5b506101a5610508366004611790565b61118b565b34801561051957600080fd5b506101a5611223565b336000908152600960205260409020805461053c90611b79565b1515905061058a5760405162461bcd60e51b81526020600482015260166024820152751058d8dbdd5b9d081b9bdd081c9959da5cdd195c995960521b60448201526064015b60405180910390fd5b33600090815260096020908152604090912082516105aa928401906116f7565b50337fdd635a4cd84864e37e4479dbfc2ec667acfa473c83c8422a8ac9d9d07599b01c6105d682610696565b6040516105e39190611a68565b60405180910390a250565b6060600480546105fd90611b79565b80601f016020809104026020016040519081016040528092919081815260200182805461062990611b79565b80156106765780601f1061064b57610100808354040283529160200191610676565b820191906000526020600020905b81548152906001019060200180831161065957829003601f168201915b5050505050905090565b600061068d3384846112d4565b50600192915050565b6001600160a01b0381166000908152600960205260408120805460609291906106be90611b79565b90501115610709576001600160a01b03821660009081526009602090815260409182902091516106f392600692909101611a53565b6040516020818303038152906040529050919050565b505060408051602081019091526000815290565b336000908152600960205260409020805461073790611b79565b1590506107865760405162461bcd60e51b815260206004820152601a60248201527f4163636f756e7420616c726561647920726567697374657265640000000000006044820152606401610581565b33600090815260096020908152604090912082516107a6928401906116f7565b50337fbafddecbd1dec1c1afb76d693f1de16901f521bdf29a02438e3e6806c0b8d9486105d682610696565b60006107df8484846113f8565b6001600160a01b0384166000908152600260209081526040808320338452909152902054828110156108645760405162461bcd60e51b815260206004820152602860248201527f45524332303a207472616e7366657220616d6f756e74206578636565647320616044820152676c6c6f77616e636560c01b6064820152608401610581565b61087185338584036112d4565b506001949350505050565b3360008181526002602090815260408083206001600160a01b0387168452909152812054909161068d9185906108b3908690611b29565b6112d4565b6000546001600160a01b031633146108e25760405162461bcd60e51b815260040161058190611a9b565b600047116109285760405162461bcd60e51b8152602060048201526013602482015272105b5bdd5b9d081a5b9cdd59999a58da595b9d606a1b6044820152606401610581565b600080546040516001600160a01b03909116914780156108fc02929091818181858888f19350505050158015610962573d6000803e3d6000fd5b50565b6006805461097290611b79565b80601f016020809104026020016040519081016040528092919081815260200182805461099e90611b79565b80156109eb5780601f106109c0576101008083540402835291602001916109eb565b820191906000526020600020905b8154815290600101906020018083116109ce57829003601f168201915b505050505081565b3360009081526008602052604090208054610a0d90611b79565b159050610a5c5760405162461bcd60e51b815260206004820152601a60248201527f4163636f756e7420616c726561647920726567697374657265640000000000006044820152606401610581565b3360009081526008602090815260409091208251610a7c928401906116f7565b50337f713b884fa85d657dab3084902090821951d956678e51a03b2a550a0a39c063f36105d682610c42565b6000546001600160a01b03163314610ad25760405162461bcd60e51b815260040161058190611a9b565b610adc60006115c8565b565b6060600580546105fd90611b79565b3360009081526008602052604090208054610b0790611b79565b15159050610b505760405162461bcd60e51b81526020600482015260166024820152751058d8dbdd5b9d081b9bdd081c9959da5cdd195c995960521b6044820152606401610581565b3360009081526008602090815260409091208251610b70928401906116f7565b50337fed6fbee54fb754678a908527ed51cf00840e56cca6b00760c99382dccf6866f96105d682610c42565b3360009081526002602090815260408083206001600160a01b038616845290915281205482811015610c1e5760405162461bcd60e51b815260206004820152602560248201527f45524332303a2064656372656173656420616c6c6f77616e63652062656c6f77604482015264207a65726f60d81b6064820152608401610581565b610c2b33858584036112d4565b5060019392505050565b600061068d3384846113f8565b6001600160a01b038181166000908152600a60205260409020546060911615610e64576001600160a01b038083166000908152600a602052604090208054600182015460029092015492169160ff1615610dac576040516331a9108f60e11b8152600481018290526001600160a01b038086169190841690636352211e9060240160206040518083038186803b158015610cdb57600080fd5b505afa158015610cef573d6000803e3d6000fd5b505050506040513d601f19601f82011682018060405250810190610d1391906117b3565b6001600160a01b03161415610da75760405163c87b56dd60e01b8152600481018290526001600160a01b0383169063c87b56dd906024015b60006040518083038186803b158015610d6357600080fd5b505afa158015610d77573d6000803e3d6000fd5b505050506040513d6000823e601f3d908101601f19168201604052610d9f9190810190611930565b949350505050565b610e61565b604051627eeac760e11b81526001600160a01b038581166004830152602482018390526000919084169062fdd58e9060440160206040518083038186803b158015610df657600080fd5b505afa158015610e0a573d6000803e3d6000fd5b505050506040513d601f19601f82011682018060405250810190610e2e91906119a3565b1115610e61576040516303a24d0760e21b8152600481018290526001600160a01b03831690630e89341c90602401610d4b565b50505b6001600160a01b03821660009081526008602052604081208054610e8790611b79565b90501115610709576001600160a01b03821660009081526008602090815260409182902091516106f392600692909101611a53565b8015610f87576040516331a9108f60e11b81526004810183905233906001600160a01b03851690636352211e9060240160206040518083038186803b158015610f0457600080fd5b505afa158015610f18573d6000803e3d6000fd5b505050506040513d601f19601f82011682018060405250810190610f3c91906117b3565b6001600160a01b031614610f825760405162461bcd60e51b815260206004820152600d60248201526c13dddb995c881a5b9d985b1a59609a1b6044820152606401610581565b61104a565b604051627eeac760e11b8152336004820152602481018390526000906001600160a01b0385169062fdd58e9060440160206040518083038186803b158015610fce57600080fd5b505afa158015610fe2573d6000803e3d6000fd5b505050506040513d601f19601f8201168201806040525081019061100691906119a3565b1161104a5760405162461bcd60e51b815260206004820152601460248201527310985b185b98d9481a5b9cdd59999a58da595b9d60621b6044820152606401610581565b604080516060810182526001600160a01b0385811682526020808301868152851515848601908152336000818152600a909452868420955186546001600160a01b031916951694909417855590516001850155516002909301805460ff19169315159390931790925591517febbf08e0c6f72650cd47fd7a287defcf3b872b6c42d317a2a7a86ec62e394ffd9190a2505050565b600034116111265760405162461bcd60e51b8152602060048201526015602482015274111bdb985d1a5bdb881a5b9cdd59999a58da595b9d605a1b6044820152606401610581565b6111303334611618565b336000908152600760205260408120805434929061114f908490611b29565b909155505060405134815233907f468bb967b2a541c62b036ff215eec60aeec51236016d6250a405472a36d4edec9060200160405180910390a2565b6000546001600160a01b031633146111b55760405162461bcd60e51b815260040161058190611a9b565b6001600160a01b03811661121a5760405162461bcd60e51b815260206004820152602660248201527f4f776e61626c653a206e6577206f776e657220697320746865207a65726f206160448201526564647265737360d01b6064820152608401610581565b610962816115c8565b336000908152600a60205260409020546001600160a01b031661127d5760405162461bcd60e51b8152602060048201526012602482015271139195081b9bdd081c9959da5cdd195c995960721b6044820152606401610581565b336000818152600a602052604080822080546001600160a01b031916815560018101839055600201805460ff19169055517fb63279298e3ac7072c4faab7d32ee749119d951fc3d598b92bd9640546a543d19190a2565b6001600160a01b0383166113365760405162461bcd60e51b8152602060048201526024808201527f45524332303a20617070726f76652066726f6d20746865207a65726f206164646044820152637265737360e01b6064820152608401610581565b6001600160a01b0382166113975760405162461bcd60e51b815260206004820152602260248201527f45524332303a20617070726f766520746f20746865207a65726f206164647265604482015261737360f01b6064820152608401610581565b6001600160a01b0383811660008181526002602090815260408083209487168084529482529182902085905590518481527f8c5be1e5ebec7d5bd14f71427d1e84f3dd0314c0f7b2291e5b200ac8c7c3b925910160405180910390a3505050565b6001600160a01b03831661145c5760405162461bcd60e51b815260206004820152602560248201527f45524332303a207472616e736665722066726f6d20746865207a65726f206164604482015264647265737360d81b6064820152608401610581565b6001600160a01b0382166114be5760405162461bcd60e51b815260206004820152602360248201527f45524332303a207472616e7366657220746f20746865207a65726f206164647260448201526265737360e81b6064820152608401610581565b6001600160a01b038316600090815260016020526040902054818110156115365760405162461bcd60e51b815260206004820152602660248201527f45524332303a207472616e7366657220616d6f756e7420657863656564732062604482015265616c616e636560d01b6064820152608401610581565b6001600160a01b0380851660009081526001602052604080822085850390559185168152908120805484929061156d908490611b29565b92505081905550826001600160a01b0316846001600160a01b03167fddf252ad1be2c89b69c2b068fc378daa952ba7f163c4a11628f55a4df523b3ef846040516115b991815260200190565b60405180910390a35b50505050565b600080546001600160a01b038381166001600160a01b0319831681178455604051919092169283917f8be0079c531659141344cd1fd0a4f28419497f9722a3daafe3b4186f6b6457e09190a35050565b6001600160a01b03821661166e5760405162461bcd60e51b815260206004820152601f60248201527f45524332303a206d696e7420746f20746865207a65726f2061646472657373006044820152606401610581565b80600360008282546116809190611b29565b90915550506001600160a01b038216600090815260016020526040812080548392906116ad908490611b29565b90915550506040518181526001600160a01b038316906000907fddf252ad1be2c89b69c2b068fc378daa952ba7f163c4a11628f55a4df523b3ef9060200160405180910390a35050565b82805461170390611b79565b90600052602060002090601f016020900481019282611725576000855561176b565b82601f1061173e57805160ff191683800117855561176b565b8280016001018555821561176b579182015b8281111561176b578251825591602001919060010190611750565b5061177792915061177b565b5090565b5b80821115611777576000815560010161177c565b6000602082840312156117a1578081fd5b81356117ac81611bca565b9392505050565b6000602082840312156117c4578081fd5b81516117ac81611bca565b600080604083850312156117e1578081fd5b82356117ec81611bca565b915060208301356117fc81611bca565b809150509250929050565b60008060006060848603121561181b578081fd5b833561182681611bca565b9250602084013561183681611bca565b929592945050506040919091013590565b60008060408385031215611859578182fd5b823561186481611bca565b946020939093013593505050565b600080600060608486031215611886578283fd5b833561189181611bca565b925060208401359150604084013580151581146118ac578182fd5b809150509250925092565b6000602082840312156118c8578081fd5b813567ffffffffffffffff8111156118de578182fd5b8201601f810184136118ee578182fd5b80356119016118fc82611b01565b611ad0565b818152856020838501011115611915578384fd5b81602084016020830137908101602001929092525092915050565b600060208284031215611941578081fd5b815167ffffffffffffffff811115611957578182fd5b8201601f81018413611967578182fd5b80516119756118fc82611b01565b818152856020838501011115611989578384fd5b61199a826020830160208601611b4d565b95945050505050565b6000602082840312156119b4578081fd5b5051919050565b8054600090600181811c90808316806119d557607f831692505b60208084108214156119f557634e487b7160e01b86526022600452602486fd5b818015611a095760018114611a1a57611a47565b60ff19861689528489019650611a47565b60008881526020902060005b86811015611a3f5781548b820152908501908301611a26565b505084890196505b50505050505092915050565b6000610d9f611a6283866119bb565b846119bb565b6020815260008251806020840152611a87816040850160208701611b4d565b601f01601f19169190910160400192915050565b6020808252818101527f4f776e61626c653a2063616c6c6572206973206e6f7420746865206f776e6572604082015260600190565b604051601f8201601f1916810167ffffffffffffffff81118282101715611af957611af9611bb4565b604052919050565b600067ffffffffffffffff821115611b1b57611b1b611bb4565b50601f01601f191660200190565b60008219821115611b4857634e487b7160e01b81526011600452602481fd5b500190565b60005b83811015611b68578181015183820152602001611b50565b838111156115c25750506000910152565b600181811c90821680611b8d57607f821691505b60208210811415611bae57634e487b7160e01b600052602260045260246000fd5b50919050565b634e487b7160e01b600052604160045260246000fd5b6001600160a01b038116811461096257600080fdfea26469706673582212202d1c62829a4660264cc5e34f64c85aaf282aa40d4b29b3385104a6501235692364736f6c63430008040033",
  "devdoc": {
    "kind": "dev",
    "methods": {
      "allowance(address,address)": {
        "details": "See {IERC20-allowance}."
      },
      "approve(address,uint256)": {
        "details": "See {IERC20-approve}. Requirements: - `spender` cannot be the zero address."
      },
      "balanceOf(address)": {
        "details": "See {IERC20-balanceOf}."
      },
      "decimals()": {
        "details": "Returns the number of decimals used to get its user representation. For example, if `decimals` equals `2`, a balance of `505` tokens should be displayed to a user as `5,05` (`505 / 10 ** 2`). Tokens usually opt for a value of 18, imitating the relationship between Ether and Wei. This is the value {ERC20} uses, unless this function is overridden; NOTE: This information is only used for _display_ purposes: it in no way affects any of the arithmetic of the contract, including {IERC20-balanceOf} and {IERC20-transfer}."
      },
      "decreaseAllowance(address,uint256)": {
        "details": "Atomically decreases the allowance granted to `spender` by the caller. This is an alternative to {approve} that can be used as a mitigation for problems described in {IERC20-approve}. Emits an {Approval} event indicating the updated allowance. Requirements: - `spender` cannot be the zero address. - `spender` must have allowance for the caller of at least `subtractedValue`."
      },
      "increaseAllowance(address,uint256)": {
        "details": "Atomically increases the allowance granted to `spender` by the caller. This is an alternative to {approve} that can be used as a mitigation for problems described in {IERC20-approve}. Emits an {Approval} event indicating the updated allowance. Requirements: - `spender` cannot be the zero address."
      },
      "name()": {
        "details": "Returns the name of the token."
      },
      "owner()": {
        "details": "Returns the address of the current owner."
      },
      "renounceOwnership()": {
        "details": "Leaves the contract without owner. It will not be possible to call `onlyOwner` functions anymore. Can only be called by the current owner. NOTE: Renouncing ownership will leave the contract without an owner, thereby removing any functionality that is only available to the owner."
      },
      "symbol()": {
        "details": "Returns the symbol of the token, usually a shorter version of the name."
      },
      "totalSupply()": {
        "details": "See {IERC20-totalSupply}."
      },
      "transfer(address,uint256)": {
        "details": "See {IERC20-transfer}. Requirements: - `recipient` cannot be the zero address. - the caller must have a balance of at least `amount`."
      },
      "transferFrom(address,address,uint256)": {
        "details": "See {IERC20-transferFrom}. Emits an {Approval} event indicating the updated allowance. This is not required by the EIP. See the note at the beginning of {ERC20}. Requirements: - `sender` and `recipient` cannot be the zero address. - `sender` must have a balance of at least `amount`. - the caller must have allowance for ``sender``'s tokens of at least `amount`."
      },
      "transferOwnership(address)": {
        "details": "Transfers ownership of the contract to a new account (`newOwner`). Can only be called by the current owner."
      }
    },
    "version": 1
  },
  "userdoc": {
    "kind": "user",
    "methods": {},
    "version": 1
  },
  "storageLayout": {
    "storage": [
      {
        "astId": 7,
        "contract": "contracts/BCRAvatar.sol:BCRAvatar",
        "label": "_owner",
        "offset": 0,
        "slot": "0",
        "type": "t_address"
      },
      {
        "astId": 1382,
        "contract": "contracts/BCRAvatar.sol:BCRAvatar",
        "label": "_balances",
        "offset": 0,
        "slot": "1",
        "type": "t_mapping(t_address,t_uint256)"
      },
      {
        "astId": 1388,
        "contract": "contracts/BCRAvatar.sol:BCRAvatar",
        "label": "_allowances",
        "offset": 0,
        "slot": "2",
        "type": "t_mapping(t_address,t_mapping(t_address,t_uint256))"
      },
      {
        "astId": 1390,
        "contract": "contracts/BCRAvatar.sol:BCRAvatar",
        "label": "_totalSupply",
        "offset": 0,
        "slot": "3",
        "type": "t_uint256"
      },
      {
        "astId": 1392,
        "contract": "contracts/BCRAvatar.sol:BCRAvatar",
        "label": "_name",
        "offset": 0,
        "slot": "4",
        "type": "t_string_storage"
      },
      {
        "astId": 1394,
        "contract": "contracts/BCRAvatar.sol:BCRAvatar",
        "label": "_symbol",
        "offset": 0,
        "slot": "5",
        "type": "t_string_storage"
      },
      {
        "astId": 3811,
        "contract": "contracts/BCRAvatar.sol:BCRAvatar",
        "label": "baseURI",
        "offset": 0,
        "slot": "6",
        "type": "t_string_storage"
      },
      {
        "astId": 3815,
        "contract": "contracts/BCRAvatar.sol:BCRAvatar",
        "label": "donations",
        "offset": 0,
        "slot": "7",
        "type": "t_mapping(t_address,t_uint256)"
      },
      {
        "astId": 3819,
        "contract": "contracts/BCRAvatar.sol:BCRAvatar",
        "label": "avatars",
        "offset": 0,
        "slot": "8",
        "type": "t_mapping(t_address,t_string_storage)"
      },
      {
        "astId": 3823,
        "contract": "contracts/BCRAvatar.sol:BCRAvatar",
        "label": "profiles",
        "offset": 0,
        "slot": "9",
        "type": "t_mapping(t_address,t_string_storage)"
      },
      {
        "astId": 3828,
        "contract": "contracts/BCRAvatar.sol:BCRAvatar",
        "label": "avatarNFTs",
        "offset": 0,
        "slot": "10",
        "type": "t_mapping(t_address,t_struct(AvatarNFT)3770_storage)"
      }
    ],
    "types": {
      "t_address": {
        "encoding": "inplace",
        "label": "address",
        "numberOfBytes": "20"
      },
      "t_bool": {
        "encoding": "inplace",
        "label": "bool",
        "numberOfBytes": "1"
      },
      "t_mapping(t_address,t_mapping(t_address,t_uint256))": {
        "encoding": "mapping",
        "key": "t_address",
        "label": "mapping(address => mapping(address => uint256))",
        "numberOfBytes": "32",
        "value": "t_mapping(t_address,t_uint256)"
      },
      "t_mapping(t_address,t_string_storage)": {
        "encoding": "mapping",
        "key": "t_address",
        "label": "mapping(address => string)",
        "numberOfBytes": "32",
        "value": "t_string_storage"
      },
      "t_mapping(t_address,t_struct(AvatarNFT)3770_storage)": {
        "encoding": "mapping",
        "key": "t_address",
        "label": "mapping(address => struct BCRAvatar.AvatarNFT)",
        "numberOfBytes": "32",
        "value": "t_struct(AvatarNFT)3770_storage"
      },
      "t_mapping(t_address,t_uint256)": {
        "encoding": "mapping",
        "key": "t_address",
        "label": "mapping(address => uint256)",
        "numberOfBytes": "32",
        "value": "t_uint256"
      },
      "t_string_storage": {
        "encoding": "bytes",
        "label": "string",
        "numberOfBytes": "32"
      },
      "t_struct(AvatarNFT)3770_storage": {
        "encoding": "inplace",
        "label": "struct BCRAvatar.AvatarNFT",
        "members": [
          {
            "astId": 3765,
            "contract": "contracts/BCRAvatar.sol:BCRAvatar",
            "label": "_contract",
            "offset": 0,
            "slot": "0",
            "type": "t_address"
          },
          {
            "astId": 3767,
            "contract": "contracts/BCRAvatar.sol:BCRAvatar",
            "label": "tokenId",
            "offset": 0,
            "slot": "1",
            "type": "t_uint256"
          },
          {
            "astId": 3769,
            "contract": "contracts/BCRAvatar.sol:BCRAvatar",
            "label": "isERC721",
            "offset": 0,
            "slot": "2",
            "type": "t_bool"
          }
        ],
        "numberOfBytes": "96"
      },
      "t_uint256": {
        "encoding": "inplace",
        "label": "uint256",
        "numberOfBytes": "32"
      }
    }
  }
}