{
  "address": "0x8B19f8beD462677050aBa788BbD6A6e892EE3634",
  "abi": [
    {
      "inputs": [
        {
          "internalType": "string",
          "name": "_baseURI",
          "type": "string"
        }
      ],
      "stateMutability": "nonpayable",
      "type": "constructor"
    },
    {
      "anonymous": false,
      "inputs": [
        {
          "indexed": true,
          "internalType": "address",
          "name": "owner",
          "type": "address"
        },
        {
          "indexed": true,
          "internalType": "address",
          "name": "spender",
          "type": "address"
        },
        {
          "indexed": false,
          "internalType": "uint256",
          "name": "value",
          "type": "uint256"
        }
      ],
      "name": "Approval",
      "type": "event"
    },
    {
      "anonymous": false,
      "inputs": [
        {
          "indexed": true,
          "internalType": "address",
          "name": "account",
          "type": "address"
        },
        {
          "indexed": false,
          "internalType": "string",
          "name": "avatarURI",
          "type": "string"
        }
      ],
      "name": "AvatarCreated",
      "type": "event"
    },
    {
      "anonymous": false,
      "inputs": [
        {
          "indexed": true,
          "internalType": "address",
          "name": "account",
          "type": "address"
        },
        {
          "indexed": false,
          "internalType": "string",
          "name": "avatarURI",
          "type": "string"
        }
      ],
      "name": "AvatarUpdated",
      "type": "event"
    },
    {
      "anonymous": false,
      "inputs": [
        {
          "indexed": true,
          "internalType": "address",
          "name": "account",
          "type": "address"
        },
        {
          "components": [
            {
              "internalType": "address",
              "name": "_contract",
              "type": "address"
            },
            {
              "internalType": "uint256",
              "name": "tokenId",
              "type": "uint256"
            }
          ],
          "indexed": false,
          "internalType": "struct BCRAvatar.AvatarNFT",
          "name": "nft",
          "type": "tuple"
        }
      ],
      "name": "NFTRegistered",
      "type": "event"
    },
    {
      "anonymous": false,
      "inputs": [
        {
          "indexed": true,
          "internalType": "address",
          "name": "previousOwner",
          "type": "address"
        },
        {
          "indexed": true,
          "internalType": "address",
          "name": "newOwner",
          "type": "address"
        }
      ],
      "name": "OwnershipTransferred",
      "type": "event"
    },
    {
      "anonymous": false,
      "inputs": [
        {
          "indexed": true,
          "internalType": "address",
          "name": "account",
          "type": "address"
        },
        {
          "indexed": false,
          "internalType": "uint256",
          "name": "amount",
          "type": "uint256"
        }
      ],
      "name": "ServiceDonated",
      "type": "event"
    },
    {
      "anonymous": false,
      "inputs": [
        {
          "indexed": true,
          "internalType": "address",
          "name": "from",
          "type": "address"
        },
        {
          "indexed": true,
          "internalType": "address",
          "name": "to",
          "type": "address"
        },
        {
          "indexed": false,
          "internalType": "uint256",
          "name": "value",
          "type": "uint256"
        }
      ],
      "name": "Transfer",
      "type": "event"
    },
    {
      "inputs": [
        {
          "internalType": "address",
          "name": "owner",
          "type": "address"
        },
        {
          "internalType": "address",
          "name": "spender",
          "type": "address"
        }
      ],
      "name": "allowance",
      "outputs": [
        {
          "internalType": "uint256",
          "name": "",
          "type": "uint256"
        }
      ],
      "stateMutability": "view",
      "type": "function"
    },
    {
      "inputs": [
        {
          "internalType": "address",
          "name": "spender",
          "type": "address"
        },
        {
          "internalType": "uint256",
          "name": "amount",
          "type": "uint256"
        }
      ],
      "name": "approve",
      "outputs": [
        {
          "internalType": "bool",
          "name": "",
          "type": "bool"
        }
      ],
      "stateMutability": "nonpayable",
      "type": "function"
    },
    {
      "inputs": [
        {
          "internalType": "address",
          "name": "account",
          "type": "address"
        }
      ],
      "name": "balanceOf",
      "outputs": [
        {
          "internalType": "uint256",
          "name": "",
          "type": "uint256"
        }
      ],
      "stateMutability": "view",
      "type": "function"
    },
    {
      "inputs": [],
      "name": "baseURI",
      "outputs": [
        {
          "internalType": "string",
          "name": "",
          "type": "string"
        }
      ],
      "stateMutability": "view",
      "type": "function"
    },
    {
      "inputs": [],
      "name": "decimals",
      "outputs": [
        {
          "internalType": "uint8",
          "name": "",
          "type": "uint8"
        }
      ],
      "stateMutability": "view",
      "type": "function"
    },
    {
      "inputs": [
        {
          "internalType": "address",
          "name": "spender",
          "type": "address"
        },
        {
          "internalType": "uint256",
          "name": "subtractedValue",
          "type": "uint256"
        }
      ],
      "name": "decreaseAllowance",
      "outputs": [
        {
          "internalType": "bool",
          "name": "",
          "type": "bool"
        }
      ],
      "stateMutability": "nonpayable",
      "type": "function"
    },
    {
      "inputs": [],
      "name": "donate",
      "outputs": [],
      "stateMutability": "payable",
      "type": "function"
    },
    {
      "inputs": [
        {
          "internalType": "address",
          "name": "",
          "type": "address"
        }
      ],
      "name": "donations",
      "outputs": [
        {
          "internalType": "uint256",
          "name": "",
          "type": "uint256"
        }
      ],
      "stateMutability": "view",
      "type": "function"
    },
    {
      "inputs": [
        {
          "internalType": "address",
          "name": "account",
          "type": "address"
        }
      ],
      "name": "getAvatar",
      "outputs": [
        {
          "internalType": "string",
          "name": "",
          "type": "string"
        }
      ],
      "stateMutability": "view",
      "type": "function"
    },
    {
      "inputs": [
        {
          "internalType": "address",
          "name": "spender",
          "type": "address"
        },
        {
          "internalType": "uint256",
          "name": "addedValue",
          "type": "uint256"
        }
      ],
      "name": "increaseAllowance",
      "outputs": [
        {
          "internalType": "bool",
          "name": "",
          "type": "bool"
        }
      ],
      "stateMutability": "nonpayable",
      "type": "function"
    },
    {
      "inputs": [],
      "name": "name",
      "outputs": [
        {
          "internalType": "string",
          "name": "",
          "type": "string"
        }
      ],
      "stateMutability": "view",
      "type": "function"
    },
    {
      "inputs": [],
      "name": "owner",
      "outputs": [
        {
          "internalType": "address",
          "name": "",
          "type": "address"
        }
      ],
      "stateMutability": "view",
      "type": "function"
    },
    {
      "inputs": [
        {
          "internalType": "address",
          "name": "_contract",
          "type": "address"
        },
        {
          "internalType": "uint256",
          "name": "tokenId",
          "type": "uint256"
        }
      ],
      "name": "registerNFT",
      "outputs": [],
      "stateMutability": "nonpayable",
      "type": "function"
    },
    {
      "inputs": [],
      "name": "renounceOwnership",
      "outputs": [],
      "stateMutability": "nonpayable",
      "type": "function"
    },
    {
      "inputs": [
        {
          "internalType": "uint256",
          "name": "avatarId",
          "type": "uint256"
        }
      ],
      "name": "setAvatar",
      "outputs": [],
      "stateMutability": "nonpayable",
      "type": "function"
    },
    {
      "inputs": [
        {
          "internalType": "string",
          "name": "_baseURI",
          "type": "string"
        }
      ],
      "name": "setBaseURI",
      "outputs": [],
      "stateMutability": "nonpayable",
      "type": "function"
    },
    {
      "inputs": [],
      "name": "symbol",
      "outputs": [
        {
          "internalType": "string",
          "name": "",
          "type": "string"
        }
      ],
      "stateMutability": "view",
      "type": "function"
    },
    {
      "inputs": [],
      "name": "totalSupply",
      "outputs": [
        {
          "internalType": "uint256",
          "name": "",
          "type": "uint256"
        }
      ],
      "stateMutability": "view",
      "type": "function"
    },
    {
      "inputs": [
        {
          "internalType": "address",
          "name": "recipient",
          "type": "address"
        },
        {
          "internalType": "uint256",
          "name": "amount",
          "type": "uint256"
        }
      ],
      "name": "transfer",
      "outputs": [
        {
          "internalType": "bool",
          "name": "",
          "type": "bool"
        }
      ],
      "stateMutability": "nonpayable",
      "type": "function"
    },
    {
      "inputs": [
        {
          "internalType": "address",
          "name": "sender",
          "type": "address"
        },
        {
          "internalType": "address",
          "name": "recipient",
          "type": "address"
        },
        {
          "internalType": "uint256",
          "name": "amount",
          "type": "uint256"
        }
      ],
      "name": "transferFrom",
      "outputs": [
        {
          "internalType": "bool",
          "name": "",
          "type": "bool"
        }
      ],
      "stateMutability": "nonpayable",
      "type": "function"
    },
    {
      "inputs": [
        {
          "internalType": "address",
          "name": "newOwner",
          "type": "address"
        }
      ],
      "name": "transferOwnership",
      "outputs": [],
      "stateMutability": "nonpayable",
      "type": "function"
    },
    {
      "inputs": [
        {
          "internalType": "uint256",
          "name": "avatarId",
          "type": "uint256"
        }
      ],
      "name": "updateAvatar",
      "outputs": [],
      "stateMutability": "nonpayable",
      "type": "function"
    },
    {
      "inputs": [],
      "name": "withdraw",
      "outputs": [],
      "stateMutability": "nonpayable",
      "type": "function"
    }
  ],
  "transactionHash": "0xa0fb693c7fff276a40dc3d54cfeda45218796944c990c3d85106d268e85f77b0",
  "args": [
    "https://ipfs.io/ipfs/QmUNLLsPACCz1vLxQVkXqqLX5R1X345qqfHbsf67hvA3Nn/"
  ],
  "solcInputHash": "b4258ea008040d6a0ce5c945ada6ec61",
  "bytecode": "0x60806040523480156200001157600080fd5b5060405162001f9538038062001f958339810160408190526200003491620001e6565b6040518060400160405280601c81526020017f426c6f636b636861696e20526567697374657265642041766174617200000000815250604051806040016040528060048152602001634243524160e01b815250620000a16200009b620000ec60201b60201c565b620000f0565b8151620000b690600490602085019062000140565b508051620000cc90600590602084019062000140565b50508151620000e49150600690602084019062000140565b50506200030f565b3390565b600080546001600160a01b038381166001600160a01b0319831681178455604051919092169283917f8be0079c531659141344cd1fd0a4f28419497f9722a3daafe3b4186f6b6457e09190a35050565b8280546200014e90620002bc565b90600052602060002090601f016020900481019282620001725760008555620001bd565b82601f106200018d57805160ff1916838001178555620001bd565b82800160010185558215620001bd579182015b82811115620001bd578251825591602001919060010190620001a0565b50620001cb929150620001cf565b5090565b5b80821115620001cb5760008155600101620001d0565b60006020808385031215620001f9578182fd5b82516001600160401b038082111562000210578384fd5b818501915085601f83011262000224578384fd5b815181811115620002395762000239620002f9565b604051601f8201601f19908116603f01168101908382118183101715620002645762000264620002f9565b8160405282815288868487010111156200027c578687fd5b8693505b828410156200029f578484018601518185018701529285019262000280565b82841115620002b057868684830101525b98975050505050505050565b600181811c90821680620002d157607f821691505b60208210811415620002f357634e487b7160e01b600052602260045260246000fd5b50919050565b634e487b7160e01b600052604160045260246000fd5b611c76806200031f6000396000f3fe6080604052600436106101405760003560e01c806370a08231116100b6578063cc6cb19a1161006f578063cc6cb19a1461036f578063ce8ac0331461039c578063dd62ed3e146103bc578063df0bcf4d14610402578063ed88c68e14610422578063f2fde38b1461042a57600080fd5b806370a08231146102a7578063715018a6146102dd5780638da5cb5b146102f257806395d89b411461031a578063a457c2d71461032f578063a9059cbb1461034f57600080fd5b8063313ce56711610108578063313ce56714610201578063395093511461021d5780633ccfd60b1461023d578063499dfa6d1461025257806355f804b3146102725780636c0360eb1461029257600080fd5b806306fdde0314610145578063095ea7b31461017057806317a6b609146101a057806318160ddd146101c257806323b872dd146101e1575b600080fd5b34801561015157600080fd5b5061015a61044a565b60405161016791906118df565b60405180910390f35b34801561017c57600080fd5b5061019061018b3660046116d4565b6104dc565b6040519015158152602001610167565b3480156101ac57600080fd5b506101c06101bb3660046116d4565b6104f3565b005b3480156101ce57600080fd5b506003545b604051908152602001610167565b3480156101ed57600080fd5b506101906101fc366004611694565b61063f565b34801561020d57600080fd5b5060405160128152602001610167565b34801561022957600080fd5b506101906102383660046116d4565b6106e9565b34801561024957600080fd5b506101c0610725565b34801561025e57600080fd5b506101c061026d3660046117eb565b6107d2565b34801561027e57600080fd5b506101c061028d3660046116ff565b61087b565b34801561029e57600080fd5b5061015a6108bc565b3480156102b357600080fd5b506101d36102c236600461161d565b6001600160a01b031660009081526001602052604090205490565b3480156102e957600080fd5b506101c061094a565b3480156102fe57600080fd5b506000546040516001600160a01b039091168152602001610167565b34801561032657600080fd5b5061015a610980565b34801561033b57600080fd5b5061019061034a3660046116d4565b61098f565b34801561035b57600080fd5b5061019061036a3660046116d4565b610a28565b34801561037b57600080fd5b506101d361038a36600461161d565b60076020526000908152604090205481565b3480156103a857600080fd5b5061015a6103b736600461161d565b610a35565b3480156103c857600080fd5b506101d36103d736600461165c565b6001600160a01b03918216600090815260026020908152604080832093909416825291909152205490565b34801561040e57600080fd5b506101c061041d3660046117eb565b610c0c565b6101c0610ca5565b34801561043657600080fd5b506101c061044536600461161d565b610d5b565b60606004805461045990611b7f565b80601f016020809104026020016040519081016040528092919081815260200182805461048590611b7f565b80156104d25780601f106104a7576101008083540402835291602001916104d2565b820191906000526020600020905b8154815290600101906020018083116104b557829003601f168201915b5050505050905090565b60006104e9338484610df3565b5060015b92915050565b6040516331a9108f60e11b81526004810182905233906001600160a01b03841690636352211e9060240160206040518083038186803b15801561053557600080fd5b505afa158015610549573d6000803e3d6000fd5b505050506040513d601f19601f8201168201806040525081019061056d9190611640565b6001600160a01b0316146105b85760405162461bcd60e51b815260206004820152600d60248201526c13dddb995c881a5b9d985b1a59609a1b60448201526064015b60405180910390fd5b6040805180820182526001600160a01b038481168252602080830185815233600081815260098452869020945185546001600160a01b031916941693841785559051600190940184905584519283529082019290925290917fd0bb3247b8906912cc0e117923290df9f763b353addf0de95344da2392ff1c3a910160405180910390a25050565b600061064c848484610f17565b6001600160a01b0384166000908152600260209081526040808320338452909152902054828110156106d15760405162461bcd60e51b815260206004820152602860248201527f45524332303a207472616e7366657220616d6f756e74206578636565647320616044820152676c6c6f77616e636560c01b60648201526084016105af565b6106de8533858403610df3565b506001949350505050565b3360008181526002602090815260408083206001600160a01b038716845290915281205490916104e99185906107209086906119a0565b610df3565b6000546001600160a01b0316331461074f5760405162461bcd60e51b81526004016105af90611912565b600047116107955760405162461bcd60e51b8152602060048201526013602482015272105b5bdd5b9d081a5b9cdd59999a58da595b9d606a1b60448201526064016105af565b600080546040516001600160a01b03909116914780156108fc02929091818181858888f193505050501580156107cf573d6000803e3d6000fd5b50565b336000908152600860205260409020546108275760405162461bcd60e51b81526020600482015260166024820152751058d8dbdd5b9d081b9bdd081c9959da5cdd195c995960521b60448201526064016105af565b3360008181526008602052604090208290557fed6fbee54fb754678a908527ed51cf00840e56cca6b00760c99382dccf6866f961086382610a35565b60405161087091906118df565b60405180910390a250565b6000546001600160a01b031633146108a55760405162461bcd60e51b81526004016105af90611912565b80516108b8906006906020840190611584565b5050565b600680546108c990611b7f565b80601f01602080910402602001604051908101604052809291908181526020018280546108f590611b7f565b80156109425780601f1061091757610100808354040283529160200191610942565b820191906000526020600020905b81548152906001019060200180831161092557829003601f168201915b505050505081565b6000546001600160a01b031633146109745760405162461bcd60e51b81526004016105af90611912565b61097e60006110e7565b565b60606005805461045990611b7f565b3360009081526002602090815260408083206001600160a01b038616845290915281205482811015610a115760405162461bcd60e51b815260206004820152602560248201527f45524332303a2064656372656173656420616c6c6f77616e63652062656c6f77604482015264207a65726f60d81b60648201526084016105af565b610a1e3385858403610df3565b5060019392505050565b60006104e9338484610f17565b6001600160a01b038181166000908152600960205260409020546060911615610b85576001600160a01b0382811660008181526009602052604090819020805460019091015491516331a9108f60e11b8152600481018390529316929091908390636352211e9060240160206040518083038186803b158015610ab757600080fd5b505afa158015610acb573d6000803e3d6000fd5b505050506040513d601f19601f82011682018060405250810190610aef9190611640565b6001600160a01b03161415610b825760405163c87b56dd60e01b8152600481018290526001600160a01b0383169063c87b56dd9060240160006040518083038186803b158015610b3e57600080fd5b505afa158015610b52573d6000803e3d6000fd5b505050506040513d6000823e601f3d908101601f19168201604052610b7a9190810190611778565b949350505050565b50505b6001600160a01b03821660009081526008602052604090205415610bf8576006610bae83611137565b6001600160a01b038416600090815260086020526040902054610bd09061138b565b604051602001610be29392919061181f565b6040516020818303038152906040529050919050565b505060408051602081019091526000815290565b3360009081526008602052604090205415610c695760405162461bcd60e51b815260206004820152601a60248201527f4163636f756e7420616c7265616479207265676973746572656400000000000060448201526064016105af565b3360008181526008602052604090208290557f713b884fa85d657dab3084902090821951d956678e51a03b2a550a0a39c063f361086382610a35565b60003411610ced5760405162461bcd60e51b8152602060048201526015602482015274111bdb985d1a5bdb881a5b9cdd59999a58da595b9d605a1b60448201526064016105af565b610d003368056bc75e2d631000006114a5565b3360009081526007602052604081208054349290610d1f9084906119a0565b909155505060405134815233907f468bb967b2a541c62b036ff215eec60aeec51236016d6250a405472a36d4edec9060200160405180910390a2565b6000546001600160a01b03163314610d855760405162461bcd60e51b81526004016105af90611912565b6001600160a01b038116610dea5760405162461bcd60e51b815260206004820152602660248201527f4f776e61626c653a206e6577206f776e657220697320746865207a65726f206160448201526564647265737360d01b60648201526084016105af565b6107cf816110e7565b6001600160a01b038316610e555760405162461bcd60e51b8152602060048201526024808201527f45524332303a20617070726f76652066726f6d20746865207a65726f206164646044820152637265737360e01b60648201526084016105af565b6001600160a01b038216610eb65760405162461bcd60e51b815260206004820152602260248201527f45524332303a20617070726f766520746f20746865207a65726f206164647265604482015261737360f01b60648201526084016105af565b6001600160a01b0383811660008181526002602090815260408083209487168084529482529182902085905590518481527f8c5be1e5ebec7d5bd14f71427d1e84f3dd0314c0f7b2291e5b200ac8c7c3b925910160405180910390a3505050565b6001600160a01b038316610f7b5760405162461bcd60e51b815260206004820152602560248201527f45524332303a207472616e736665722066726f6d20746865207a65726f206164604482015264647265737360d81b60648201526084016105af565b6001600160a01b038216610fdd5760405162461bcd60e51b815260206004820152602360248201527f45524332303a207472616e7366657220746f20746865207a65726f206164647260448201526265737360e81b60648201526084016105af565b6001600160a01b038316600090815260016020526040902054818110156110555760405162461bcd60e51b815260206004820152602660248201527f45524332303a207472616e7366657220616d6f756e7420657863656564732062604482015265616c616e636560d01b60648201526084016105af565b6001600160a01b0380851660009081526001602052604080822085850390559185168152908120805484929061108c9084906119a0565b92505081905550826001600160a01b0316846001600160a01b03167fddf252ad1be2c89b69c2b068fc378daa952ba7f163c4a11628f55a4df523b3ef846040516110d891815260200190565b60405180910390a35b50505050565b600080546001600160a01b038381166001600160a01b0319831681178455604051919092169283917f8be0079c531659141344cd1fd0a4f28419497f9722a3daafe3b4186f6b6457e09190a35050565b604080518082018252601081526f181899199a1a9b1b9c1cb0b131b232b360811b60208201528151602a808252606082810190945260009190602082018180368337019050509050600360fc1b816000815181106111a557634e487b7160e01b600052603260045260246000fd5b60200101906001600160f81b031916908160001a905350600f60fb1b816001815181106111e257634e487b7160e01b600052603260045260246000fd5b60200101906001600160f81b031916908160001a90535060005b6014811015611383576000611212826013611b19565b61121d906008611ad9565b611228906002611a31565b61123b906001600160a01b0388166119b8565b60f81b9050600060108260f81c61125291906119cc565b90506000611261826010611af8565b8360f81c61126f9190611b30565b9050858260ff168151811061129457634e487b7160e01b600052603260045260246000fd5b01602001516001600160f81b031916856112af866002611ad9565b6112ba9060026119a0565b815181106112d857634e487b7160e01b600052603260045260246000fd5b60200101906001600160f81b031916908160001a905350858160ff168151811061131257634e487b7160e01b600052603260045260246000fd5b01602001516001600160f81b0319168561132d866002611ad9565b6113389060036119a0565b8151811061135657634e487b7160e01b600052603260045260246000fd5b60200101906001600160f81b031916908160001a905350505050808061137b90611bba565b9150506111fc565b509392505050565b6060816113af5750506040805180820190915260018152600360fc1b602082015290565b8160005b81156113d957806113c381611bba565b91506113d29050600a836119b8565b91506113b3565b60008167ffffffffffffffff81111561140257634e487b7160e01b600052604160045260246000fd5b6040519080825280601f01601f19166020018201604052801561142c576020820181803683370190505b5090505b8415610b7a57611441600183611b19565b915061144e600a86611bd5565b6114599060306119a0565b60f81b81838151811061147c57634e487b7160e01b600052603260045260246000fd5b60200101906001600160f81b031916908160001a90535061149e600a866119b8565b9450611430565b6001600160a01b0382166114fb5760405162461bcd60e51b815260206004820152601f60248201527f45524332303a206d696e7420746f20746865207a65726f20616464726573730060448201526064016105af565b806003600082825461150d91906119a0565b90915550506001600160a01b0382166000908152600160205260408120805483929061153a9084906119a0565b90915550506040518181526001600160a01b038316906000907fddf252ad1be2c89b69c2b068fc378daa952ba7f163c4a11628f55a4df523b3ef9060200160405180910390a35050565b82805461159090611b7f565b90600052602060002090601f0160209004810192826115b257600085556115f8565b82601f106115cb57805160ff19168380011785556115f8565b828001600101855582156115f8579182015b828111156115f85782518255916020019190600101906115dd565b50611604929150611608565b5090565b5b808211156116045760008155600101611609565b60006020828403121561162e578081fd5b813561163981611c2b565b9392505050565b600060208284031215611651578081fd5b815161163981611c2b565b6000806040838503121561166e578081fd5b823561167981611c2b565b9150602083013561168981611c2b565b809150509250929050565b6000806000606084860312156116a8578081fd5b83356116b381611c2b565b925060208401356116c381611c2b565b929592945050506040919091013590565b600080604083850312156116e6578182fd5b82356116f181611c2b565b946020939093013593505050565b600060208284031215611710578081fd5b813567ffffffffffffffff811115611726578182fd5b8201601f81018413611736578182fd5b803561174961174482611978565b611947565b81815285602083850101111561175d578384fd5b81602084016020830137908101602001929092525092915050565b600060208284031215611789578081fd5b815167ffffffffffffffff81111561179f578182fd5b8201601f810184136117af578182fd5b80516117bd61174482611978565b8181528560208385010111156117d1578384fd5b6117e2826020830160208601611b53565b95945050505050565b6000602082840312156117fc578081fd5b5035919050565b60008151611815818560208601611b53565b9290920192915050565b600080855482600182811c91508083168061183b57607f831692505b602080841082141561185b57634e487b7160e01b87526022600452602487fd5b81801561186f5760018114611880576118ac565b60ff198616895284890196506118ac565b60008c815260209020885b868110156118a45781548b82015290850190830161188b565b505084890196505b5050505050506118d56118cf6118c28388611803565b602f60f81b815260010190565b85611803565b9695505050505050565b60208152600082518060208401526118fe816040850160208701611b53565b601f01601f19169190910160400192915050565b6020808252818101527f4f776e61626c653a2063616c6c6572206973206e6f7420746865206f776e6572604082015260600190565b604051601f8201601f1916810167ffffffffffffffff8111828210171561197057611970611c15565b604052919050565b600067ffffffffffffffff82111561199257611992611c15565b50601f01601f191660200190565b600082198211156119b3576119b3611be9565b500190565b6000826119c7576119c7611bff565b500490565b600060ff8316806119df576119df611bff565b8060ff84160491505092915050565b600181815b80851115611a29578160001904821115611a0f57611a0f611be9565b80851615611a1c57918102915b93841c93908002906119f3565b509250929050565b60006116398383600082611a47575060016104ed565b81611a54575060006104ed565b8160018114611a6a5760028114611a7457611a90565b60019150506104ed565b60ff841115611a8557611a85611be9565b50506001821b6104ed565b5060208310610133831016604e8410600b8410161715611ab3575081810a6104ed565b611abd83836119ee565b8060001904821115611ad157611ad1611be9565b029392505050565b6000816000190483118215151615611af357611af3611be9565b500290565b600060ff821660ff84168160ff0481118215151615611ad157611ad1611be9565b600082821015611b2b57611b2b611be9565b500390565b600060ff821660ff841680821015611b4a57611b4a611be9565b90039392505050565b60005b83811015611b6e578181015183820152602001611b56565b838111156110e15750506000910152565b600181811c90821680611b9357607f821691505b60208210811415611bb457634e487b7160e01b600052602260045260246000fd5b50919050565b6000600019821415611bce57611bce611be9565b5060010190565b600082611be457611be4611bff565b500690565b634e487b7160e01b600052601160045260246000fd5b634e487b7160e01b600052601260045260246000fd5b634e487b7160e01b600052604160045260246000fd5b6001600160a01b03811681146107cf57600080fdfea2646970667358221220061ec7448c89d76d5d6dcadbe4dab241fcc8faaf1889209a569c272d2572689c64736f6c63430008040033",
  "devdoc": {
    "kind": "dev",
    "methods": {
      "allowance(address,address)": {
        "details": "See {IERC20-allowance}."
      },
      "approve(address,uint256)": {
        "details": "See {IERC20-approve}. Requirements: - `spender` cannot be the zero address."
      },
      "balanceOf(address)": {
        "details": "See {IERC20-balanceOf}."
      },
      "decimals()": {
        "details": "Returns the number of decimals used to get its user representation. For example, if `decimals` equals `2`, a balance of `505` tokens should be displayed to a user as `5,05` (`505 / 10 ** 2`). Tokens usually opt for a value of 18, imitating the relationship between Ether and Wei. This is the value {ERC20} uses, unless this function is overridden; NOTE: This information is only used for _display_ purposes: it in no way affects any of the arithmetic of the contract, including {IERC20-balanceOf} and {IERC20-transfer}."
      },
      "decreaseAllowance(address,uint256)": {
        "details": "Atomically decreases the allowance granted to `spender` by the caller. This is an alternative to {approve} that can be used as a mitigation for problems described in {IERC20-approve}. Emits an {Approval} event indicating the updated allowance. Requirements: - `spender` cannot be the zero address. - `spender` must have allowance for the caller of at least `subtractedValue`."
      },
      "increaseAllowance(address,uint256)": {
        "details": "Atomically increases the allowance granted to `spender` by the caller. This is an alternative to {approve} that can be used as a mitigation for problems described in {IERC20-approve}. Emits an {Approval} event indicating the updated allowance. Requirements: - `spender` cannot be the zero address."
      },
      "name()": {
        "details": "Returns the name of the token."
      },
      "owner()": {
        "details": "Returns the address of the current owner."
      },
      "renounceOwnership()": {
        "details": "Leaves the contract without owner. It will not be possible to call `onlyOwner` functions anymore. Can only be called by the current owner. NOTE: Renouncing ownership will leave the contract without an owner, thereby removing any functionality that is only available to the owner."
      },
      "symbol()": {
        "details": "Returns the symbol of the token, usually a shorter version of the name."
      },
      "totalSupply()": {
        "details": "See {IERC20-totalSupply}."
      },
      "transfer(address,uint256)": {
        "details": "See {IERC20-transfer}. Requirements: - `recipient` cannot be the zero address. - the caller must have a balance of at least `amount`."
      },
      "transferFrom(address,address,uint256)": {
        "details": "See {IERC20-transferFrom}. Emits an {Approval} event indicating the updated allowance. This is not required by the EIP. See the note at the beginning of {ERC20}. Requirements: - `sender` and `recipient` cannot be the zero address. - `sender` must have a balance of at least `amount`. - the caller must have allowance for ``sender``'s tokens of at least `amount`."
      },
      "transferOwnership(address)": {
        "details": "Transfers ownership of the contract to a new account (`newOwner`). Can only be called by the current owner."
      }
    },
    "version": 1
  },
  "userdoc": {
    "kind": "user",
    "methods": {},
    "version": 1
  },
  "storageLayout": {
    "storage": [
      {
        "astId": 7,
        "contract": "contracts/BCRAvatar.sol:BCRAvatar",
        "label": "_owner",
        "offset": 0,
        "slot": "0",
        "type": "t_address"
      },
      {
        "astId": 119,
        "contract": "contracts/BCRAvatar.sol:BCRAvatar",
        "label": "_balances",
        "offset": 0,
        "slot": "1",
        "type": "t_mapping(t_address,t_uint256)"
      },
      {
        "astId": 125,
        "contract": "contracts/BCRAvatar.sol:BCRAvatar",
        "label": "_allowances",
        "offset": 0,
        "slot": "2",
        "type": "t_mapping(t_address,t_mapping(t_address,t_uint256))"
      },
      {
        "astId": 127,
        "contract": "contracts/BCRAvatar.sol:BCRAvatar",
        "label": "_totalSupply",
        "offset": 0,
        "slot": "3",
        "type": "t_uint256"
      },
      {
        "astId": 129,
        "contract": "contracts/BCRAvatar.sol:BCRAvatar",
        "label": "_name",
        "offset": 0,
        "slot": "4",
        "type": "t_string_storage"
      },
      {
        "astId": 131,
        "contract": "contracts/BCRAvatar.sol:BCRAvatar",
        "label": "_symbol",
        "offset": 0,
        "slot": "5",
        "type": "t_string_storage"
      },
      {
        "astId": 2531,
        "contract": "contracts/BCRAvatar.sol:BCRAvatar",
        "label": "baseURI",
        "offset": 0,
        "slot": "6",
        "type": "t_string_storage"
      },
      {
        "astId": 2535,
        "contract": "contracts/BCRAvatar.sol:BCRAvatar",
        "label": "donations",
        "offset": 0,
        "slot": "7",
        "type": "t_mapping(t_address,t_uint256)"
      },
      {
        "astId": 2539,
        "contract": "contracts/BCRAvatar.sol:BCRAvatar",
        "label": "avatars",
        "offset": 0,
        "slot": "8",
        "type": "t_mapping(t_address,t_uint256)"
      },
      {
        "astId": 2544,
        "contract": "contracts/BCRAvatar.sol:BCRAvatar",
        "label": "avatarNFTs",
        "offset": 0,
        "slot": "9",
        "type": "t_mapping(t_address,t_struct(AvatarNFT)2504_storage)"
      }
    ],
    "types": {
      "t_address": {
        "encoding": "inplace",
        "label": "address",
        "numberOfBytes": "20"
      },
      "t_mapping(t_address,t_mapping(t_address,t_uint256))": {
        "encoding": "mapping",
        "key": "t_address",
        "label": "mapping(address => mapping(address => uint256))",
        "numberOfBytes": "32",
        "value": "t_mapping(t_address,t_uint256)"
      },
      "t_mapping(t_address,t_struct(AvatarNFT)2504_storage)": {
        "encoding": "mapping",
        "key": "t_address",
        "label": "mapping(address => struct BCRAvatar.AvatarNFT)",
        "numberOfBytes": "32",
        "value": "t_struct(AvatarNFT)2504_storage"
      },
      "t_mapping(t_address,t_uint256)": {
        "encoding": "mapping",
        "key": "t_address",
        "label": "mapping(address => uint256)",
        "numberOfBytes": "32",
        "value": "t_uint256"
      },
      "t_string_storage": {
        "encoding": "bytes",
        "label": "string",
        "numberOfBytes": "32"
      },
      "t_struct(AvatarNFT)2504_storage": {
        "encoding": "inplace",
        "label": "struct BCRAvatar.AvatarNFT",
        "members": [
          {
            "astId": 2501,
            "contract": "contracts/BCRAvatar.sol:BCRAvatar",
            "label": "_contract",
            "offset": 0,
            "slot": "0",
            "type": "t_address"
          },
          {
            "astId": 2503,
            "contract": "contracts/BCRAvatar.sol:BCRAvatar",
            "label": "tokenId",
            "offset": 0,
            "slot": "1",
            "type": "t_uint256"
          }
        ],
        "numberOfBytes": "64"
      },
      "t_uint256": {
        "encoding": "inplace",
        "label": "uint256",
        "numberOfBytes": "32"
      }
    }
  }
}