{
  "address": "0x5F958E9361397e226468a905508238B634a254C5",
  "abi": [
    {
      "inputs": [
        {
          "internalType": "string",
          "name": "_baseURI",
          "type": "string"
        }
      ],
      "stateMutability": "nonpayable",
      "type": "constructor"
    },
    {
      "anonymous": false,
      "inputs": [
        {
          "indexed": true,
          "internalType": "address",
          "name": "owner",
          "type": "address"
        },
        {
          "indexed": true,
          "internalType": "address",
          "name": "spender",
          "type": "address"
        },
        {
          "indexed": false,
          "internalType": "uint256",
          "name": "value",
          "type": "uint256"
        }
      ],
      "name": "Approval",
      "type": "event"
    },
    {
      "anonymous": false,
      "inputs": [
        {
          "indexed": true,
          "internalType": "address",
          "name": "account",
          "type": "address"
        },
        {
          "indexed": false,
          "internalType": "string",
          "name": "avatarURI",
          "type": "string"
        }
      ],
      "name": "AvatarCreated",
      "type": "event"
    },
    {
      "anonymous": false,
      "inputs": [
        {
          "indexed": true,
          "internalType": "address",
          "name": "account",
          "type": "address"
        },
        {
          "indexed": false,
          "internalType": "string",
          "name": "avatarURI",
          "type": "string"
        }
      ],
      "name": "AvatarUpdated",
      "type": "event"
    },
    {
      "anonymous": false,
      "inputs": [
        {
          "indexed": true,
          "internalType": "address",
          "name": "account",
          "type": "address"
        },
        {
          "components": [
            {
              "internalType": "address",
              "name": "_contract",
              "type": "address"
            },
            {
              "internalType": "uint256",
              "name": "tokenId",
              "type": "uint256"
            }
          ],
          "indexed": false,
          "internalType": "struct BCRAvatar.AvatarNFT",
          "name": "nft",
          "type": "tuple"
        }
      ],
      "name": "NFTRegistered",
      "type": "event"
    },
    {
      "anonymous": false,
      "inputs": [
        {
          "indexed": true,
          "internalType": "address",
          "name": "previousOwner",
          "type": "address"
        },
        {
          "indexed": true,
          "internalType": "address",
          "name": "newOwner",
          "type": "address"
        }
      ],
      "name": "OwnershipTransferred",
      "type": "event"
    },
    {
      "anonymous": false,
      "inputs": [
        {
          "indexed": true,
          "internalType": "address",
          "name": "account",
          "type": "address"
        },
        {
          "indexed": false,
          "internalType": "string",
          "name": "profileURI",
          "type": "string"
        }
      ],
      "name": "ProfileCreated",
      "type": "event"
    },
    {
      "anonymous": false,
      "inputs": [
        {
          "indexed": true,
          "internalType": "address",
          "name": "account",
          "type": "address"
        },
        {
          "indexed": false,
          "internalType": "string",
          "name": "profileURI",
          "type": "string"
        }
      ],
      "name": "ProfileUpdated",
      "type": "event"
    },
    {
      "anonymous": false,
      "inputs": [
        {
          "indexed": true,
          "internalType": "address",
          "name": "account",
          "type": "address"
        },
        {
          "indexed": false,
          "internalType": "uint256",
          "name": "amount",
          "type": "uint256"
        }
      ],
      "name": "ServiceDonated",
      "type": "event"
    },
    {
      "anonymous": false,
      "inputs": [
        {
          "indexed": true,
          "internalType": "address",
          "name": "from",
          "type": "address"
        },
        {
          "indexed": true,
          "internalType": "address",
          "name": "to",
          "type": "address"
        },
        {
          "indexed": false,
          "internalType": "uint256",
          "name": "value",
          "type": "uint256"
        }
      ],
      "name": "Transfer",
      "type": "event"
    },
    {
      "inputs": [
        {
          "internalType": "address",
          "name": "owner",
          "type": "address"
        },
        {
          "internalType": "address",
          "name": "spender",
          "type": "address"
        }
      ],
      "name": "allowance",
      "outputs": [
        {
          "internalType": "uint256",
          "name": "",
          "type": "uint256"
        }
      ],
      "stateMutability": "view",
      "type": "function"
    },
    {
      "inputs": [
        {
          "internalType": "address",
          "name": "spender",
          "type": "address"
        },
        {
          "internalType": "uint256",
          "name": "amount",
          "type": "uint256"
        }
      ],
      "name": "approve",
      "outputs": [
        {
          "internalType": "bool",
          "name": "",
          "type": "bool"
        }
      ],
      "stateMutability": "nonpayable",
      "type": "function"
    },
    {
      "inputs": [
        {
          "internalType": "address",
          "name": "account",
          "type": "address"
        }
      ],
      "name": "balanceOf",
      "outputs": [
        {
          "internalType": "uint256",
          "name": "",
          "type": "uint256"
        }
      ],
      "stateMutability": "view",
      "type": "function"
    },
    {
      "inputs": [],
      "name": "baseURI",
      "outputs": [
        {
          "internalType": "string",
          "name": "",
          "type": "string"
        }
      ],
      "stateMutability": "view",
      "type": "function"
    },
    {
      "inputs": [],
      "name": "decimals",
      "outputs": [
        {
          "internalType": "uint8",
          "name": "",
          "type": "uint8"
        }
      ],
      "stateMutability": "view",
      "type": "function"
    },
    {
      "inputs": [
        {
          "internalType": "address",
          "name": "spender",
          "type": "address"
        },
        {
          "internalType": "uint256",
          "name": "subtractedValue",
          "type": "uint256"
        }
      ],
      "name": "decreaseAllowance",
      "outputs": [
        {
          "internalType": "bool",
          "name": "",
          "type": "bool"
        }
      ],
      "stateMutability": "nonpayable",
      "type": "function"
    },
    {
      "inputs": [],
      "name": "donate",
      "outputs": [],
      "stateMutability": "payable",
      "type": "function"
    },
    {
      "inputs": [
        {
          "internalType": "address",
          "name": "",
          "type": "address"
        }
      ],
      "name": "donations",
      "outputs": [
        {
          "internalType": "uint256",
          "name": "",
          "type": "uint256"
        }
      ],
      "stateMutability": "view",
      "type": "function"
    },
    {
      "inputs": [
        {
          "internalType": "address",
          "name": "account",
          "type": "address"
        }
      ],
      "name": "getAvatar",
      "outputs": [
        {
          "internalType": "string",
          "name": "",
          "type": "string"
        }
      ],
      "stateMutability": "view",
      "type": "function"
    },
    {
      "inputs": [
        {
          "internalType": "address",
          "name": "account",
          "type": "address"
        }
      ],
      "name": "getProfile",
      "outputs": [
        {
          "internalType": "string",
          "name": "",
          "type": "string"
        }
      ],
      "stateMutability": "view",
      "type": "function"
    },
    {
      "inputs": [
        {
          "internalType": "address",
          "name": "spender",
          "type": "address"
        },
        {
          "internalType": "uint256",
          "name": "addedValue",
          "type": "uint256"
        }
      ],
      "name": "increaseAllowance",
      "outputs": [
        {
          "internalType": "bool",
          "name": "",
          "type": "bool"
        }
      ],
      "stateMutability": "nonpayable",
      "type": "function"
    },
    {
      "inputs": [],
      "name": "name",
      "outputs": [
        {
          "internalType": "string",
          "name": "",
          "type": "string"
        }
      ],
      "stateMutability": "view",
      "type": "function"
    },
    {
      "inputs": [],
      "name": "owner",
      "outputs": [
        {
          "internalType": "address",
          "name": "",
          "type": "address"
        }
      ],
      "stateMutability": "view",
      "type": "function"
    },
    {
      "inputs": [
        {
          "internalType": "address",
          "name": "_contract",
          "type": "address"
        },
        {
          "internalType": "uint256",
          "name": "tokenId",
          "type": "uint256"
        }
      ],
      "name": "registerNFT",
      "outputs": [],
      "stateMutability": "nonpayable",
      "type": "function"
    },
    {
      "inputs": [],
      "name": "renounceOwnership",
      "outputs": [],
      "stateMutability": "nonpayable",
      "type": "function"
    },
    {
      "inputs": [
        {
          "internalType": "string",
          "name": "avatarHash",
          "type": "string"
        }
      ],
      "name": "setAvatar",
      "outputs": [],
      "stateMutability": "nonpayable",
      "type": "function"
    },
    {
      "inputs": [
        {
          "internalType": "string",
          "name": "_baseURI",
          "type": "string"
        }
      ],
      "name": "setBaseURI",
      "outputs": [],
      "stateMutability": "nonpayable",
      "type": "function"
    },
    {
      "inputs": [
        {
          "internalType": "string",
          "name": "profileHash",
          "type": "string"
        }
      ],
      "name": "setProfile",
      "outputs": [],
      "stateMutability": "nonpayable",
      "type": "function"
    },
    {
      "inputs": [],
      "name": "symbol",
      "outputs": [
        {
          "internalType": "string",
          "name": "",
          "type": "string"
        }
      ],
      "stateMutability": "view",
      "type": "function"
    },
    {
      "inputs": [],
      "name": "totalSupply",
      "outputs": [
        {
          "internalType": "uint256",
          "name": "",
          "type": "uint256"
        }
      ],
      "stateMutability": "view",
      "type": "function"
    },
    {
      "inputs": [
        {
          "internalType": "address",
          "name": "recipient",
          "type": "address"
        },
        {
          "internalType": "uint256",
          "name": "amount",
          "type": "uint256"
        }
      ],
      "name": "transfer",
      "outputs": [
        {
          "internalType": "bool",
          "name": "",
          "type": "bool"
        }
      ],
      "stateMutability": "nonpayable",
      "type": "function"
    },
    {
      "inputs": [
        {
          "internalType": "address",
          "name": "sender",
          "type": "address"
        },
        {
          "internalType": "address",
          "name": "recipient",
          "type": "address"
        },
        {
          "internalType": "uint256",
          "name": "amount",
          "type": "uint256"
        }
      ],
      "name": "transferFrom",
      "outputs": [
        {
          "internalType": "bool",
          "name": "",
          "type": "bool"
        }
      ],
      "stateMutability": "nonpayable",
      "type": "function"
    },
    {
      "inputs": [
        {
          "internalType": "address",
          "name": "newOwner",
          "type": "address"
        }
      ],
      "name": "transferOwnership",
      "outputs": [],
      "stateMutability": "nonpayable",
      "type": "function"
    },
    {
      "inputs": [
        {
          "internalType": "string",
          "name": "avatarHash",
          "type": "string"
        }
      ],
      "name": "updateAvatar",
      "outputs": [],
      "stateMutability": "nonpayable",
      "type": "function"
    },
    {
      "inputs": [
        {
          "internalType": "string",
          "name": "profileHash",
          "type": "string"
        }
      ],
      "name": "updateProfile",
      "outputs": [],
      "stateMutability": "nonpayable",
      "type": "function"
    },
    {
      "inputs": [],
      "name": "withdraw",
      "outputs": [],
      "stateMutability": "nonpayable",
      "type": "function"
    }
  ],
  "transactionHash": "0x0819dd9b98951b16b7e2cbfd43d5173a169283e5bf472c0eead83653e2976889",
  "args": [
    "https://ipfs.io/ipfs/"
  ],
  "solcInputHash": "02119d722954962d61b87b95f718b5f8",
  "bytecode": "0x60806040523480156200001157600080fd5b5060405162001c8238038062001c828339810160408190526200003491620001e6565b6040518060400160405280601c81526020017f426c6f636b636861696e20526567697374657265642041766174617200000000815250604051806040016040528060048152602001634243524160e01b815250620000a16200009b620000ec60201b60201c565b620000f0565b8151620000b690600490602085019062000140565b508051620000cc90600590602084019062000140565b50508151620000e49150600690602084019062000140565b50506200030f565b3390565b600080546001600160a01b038381166001600160a01b0319831681178455604051919092169283917f8be0079c531659141344cd1fd0a4f28419497f9722a3daafe3b4186f6b6457e09190a35050565b8280546200014e90620002bc565b90600052602060002090601f016020900481019282620001725760008555620001bd565b82601f106200018d57805160ff1916838001178555620001bd565b82800160010185558215620001bd579182015b82811115620001bd578251825591602001919060010190620001a0565b50620001cb929150620001cf565b5090565b5b80821115620001cb5760008155600101620001d0565b60006020808385031215620001f9578182fd5b82516001600160401b038082111562000210578384fd5b818501915085601f83011262000224578384fd5b815181811115620002395762000239620002f9565b604051601f8201601f19908116603f01168101908382118183101715620002645762000264620002f9565b8160405282815288868487010111156200027c578687fd5b8693505b828410156200029f578484018601518185018701529285019262000280565b82841115620002b057868684830101525b98975050505050505050565b600181811c90821680620002d157607f821691505b60208210811415620002f357634e487b7160e01b600052602260045260246000fd5b50919050565b634e487b7160e01b600052604160045260246000fd5b611963806200031f6000396000f3fe6080604052600436106101805760003560e01c80636ec5239f116100d1578063a457c2d71161008a578063ce8ac03311610064578063ce8ac0331461045c578063dd62ed3e1461047c578063ed88c68e146104c2578063f2fde38b146104ca57600080fd5b8063a457c2d7146103ef578063a9059cbb1461040f578063cc6cb19a1461042f57600080fd5b80636ec5239f1461032757806370a0823114610347578063715018a61461037d5780638da5cb5b1461039257806395d89b41146103ba5780639fe958b9146103cf57600080fd5b8063235b37b11161013e578063395093511161011857806339509351146102bd5780633ccfd60b146102dd57806355f804b3146102f25780636c0360eb1461031257600080fd5b8063235b37b11461026157806323b872dd14610281578063313ce567146102a157600080fd5b80629299e31461018557806306fdde03146101a7578063095ea7b3146101d25780630f53a4701461020257806317a6b6091461022257806318160ddd14610242575b600080fd5b34801561019157600080fd5b506101a56101a036600461161d565b6104ea565b005b3480156101b357600080fd5b506101bc6105b6565b6040516101c991906117b6565b60405180910390f35b3480156101de57600080fd5b506101f26101ed3660046115f2565b610648565b60405190151581526020016101c9565b34801561020e57600080fd5b506101bc61021d36600461153b565b61065e565b34801561022e57600080fd5b506101a561023d3660046115f2565b6106e5565b34801561024e57600080fd5b506003545b6040519081526020016101c9565b34801561026d57600080fd5b506101a561027c36600461161d565b61082c565b34801561028d57600080fd5b506101f261029c3660046115b2565b6108e1565b3480156102ad57600080fd5b50604051601281526020016101c9565b3480156102c957600080fd5b506101f26102d83660046115f2565b61098b565b3480156102e957600080fd5b506101a56109c7565b3480156102fe57600080fd5b506101a561030d36600461161d565b610a74565b34801561031e57600080fd5b506101bc610ab5565b34801561033357600080fd5b506101a561034236600461161d565b610b43565b34801561035357600080fd5b5061025361036236600461153b565b6001600160a01b031660009081526001602052604090205490565b34801561038957600080fd5b506101a5610bf8565b34801561039e57600080fd5b506000546040516001600160a01b0390911681526020016101c9565b3480156103c657600080fd5b506101bc610c2e565b3480156103db57600080fd5b506101a56103ea36600461161d565b610c3d565b3480156103fb57600080fd5b506101f261040a3660046115f2565b610cec565b34801561041b57600080fd5b506101f261042a3660046115f2565b610d85565b34801561043b57600080fd5b5061025361044a36600461153b565b60076020526000908152604090205481565b34801561046857600080fd5b506101bc61047736600461153b565b610d92565b34801561048857600080fd5b5061025361049736600461157a565b6001600160a01b03918216600090815260026020908152604080832093909416825291909152205490565b6101a5610f3a565b3480156104d657600080fd5b506101a56104e536600461153b565b610fe7565b3360009081526009602052604090208054610504906118c7565b151590506105525760405162461bcd60e51b81526020600482015260166024820152751058d8dbdd5b9d081b9bdd081c9959da5cdd195c995960521b60448201526064015b60405180910390fd5b3360009081526009602090815260409091208251610572928401906114a2565b50337fdd635a4cd84864e37e4479dbfc2ec667acfa473c83c8422a8ac9d9d07599b01c61059e8261065e565b6040516105ab91906117b6565b60405180910390a250565b6060600480546105c5906118c7565b80601f01602080910402602001604051908101604052809291908181526020018280546105f1906118c7565b801561063e5780601f106106135761010080835404028352916020019161063e565b820191906000526020600020905b81548152906001019060200180831161062157829003601f168201915b5050505050905090565b600061065533848461107f565b50600192915050565b6001600160a01b038116600090815260096020526040812080546060929190610686906118c7565b905011156106d1576001600160a01b03821660009081526009602090815260409182902091516106bb926006929091016117a1565b6040516020818303038152906040529050919050565b505060408051602081019091526000815290565b6040516331a9108f60e11b81526004810182905233906001600160a01b03841690636352211e9060240160206040518083038186803b15801561072757600080fd5b505afa15801561073b573d6000803e3d6000fd5b505050506040513d601f19601f8201168201806040525081019061075f919061155e565b6001600160a01b0316146107a55760405162461bcd60e51b815260206004820152600d60248201526c13dddb995c881a5b9d985b1a59609a1b6044820152606401610549565b6040805180820182526001600160a01b0384811682526020808301858152336000818152600a8452869020945185546001600160a01b031916941693841785559051600190940184905584519283529082019290925290917fd0bb3247b8906912cc0e117923290df9f763b353addf0de95344da2392ff1c3a910160405180910390a25050565b3360009081526009602052604090208054610846906118c7565b1590506108955760405162461bcd60e51b815260206004820152601a60248201527f4163636f756e7420616c726561647920726567697374657265640000000000006044820152606401610549565b33600090815260096020908152604090912082516108b5928401906114a2565b50337fbafddecbd1dec1c1afb76d693f1de16901f521bdf29a02438e3e6806c0b8d94861059e8261065e565b60006108ee8484846111a3565b6001600160a01b0384166000908152600260209081526040808320338452909152902054828110156109735760405162461bcd60e51b815260206004820152602860248201527f45524332303a207472616e7366657220616d6f756e74206578636565647320616044820152676c6c6f77616e636560c01b6064820152608401610549565b610980853385840361107f565b506001949350505050565b3360008181526002602090815260408083206001600160a01b038716845290915281205490916106559185906109c2908690611877565b61107f565b6000546001600160a01b031633146109f15760405162461bcd60e51b8152600401610549906117e9565b60004711610a375760405162461bcd60e51b8152602060048201526013602482015272105b5bdd5b9d081a5b9cdd59999a58da595b9d606a1b6044820152606401610549565b600080546040516001600160a01b03909116914780156108fc02929091818181858888f19350505050158015610a71573d6000803e3d6000fd5b50565b6000546001600160a01b03163314610a9e5760405162461bcd60e51b8152600401610549906117e9565b8051610ab19060069060208401906114a2565b5050565b60068054610ac2906118c7565b80601f0160208091040260200160405190810160405280929190818152602001828054610aee906118c7565b8015610b3b5780601f10610b1057610100808354040283529160200191610b3b565b820191906000526020600020905b815481529060010190602001808311610b1e57829003601f168201915b505050505081565b3360009081526008602052604090208054610b5d906118c7565b159050610bac5760405162461bcd60e51b815260206004820152601a60248201527f4163636f756e7420616c726561647920726567697374657265640000000000006044820152606401610549565b3360009081526008602090815260409091208251610bcc928401906114a2565b50337f713b884fa85d657dab3084902090821951d956678e51a03b2a550a0a39c063f361059e82610d92565b6000546001600160a01b03163314610c225760405162461bcd60e51b8152600401610549906117e9565b610c2c6000611373565b565b6060600580546105c5906118c7565b3360009081526008602052604090208054610c57906118c7565b15159050610ca05760405162461bcd60e51b81526020600482015260166024820152751058d8dbdd5b9d081b9bdd081c9959da5cdd195c995960521b6044820152606401610549565b3360009081526008602090815260409091208251610cc0928401906114a2565b50337fed6fbee54fb754678a908527ed51cf00840e56cca6b00760c99382dccf6866f961059e82610d92565b3360009081526002602090815260408083206001600160a01b038616845290915281205482811015610d6e5760405162461bcd60e51b815260206004820152602560248201527f45524332303a2064656372656173656420616c6c6f77616e63652062656c6f77604482015264207a65726f60d81b6064820152608401610549565b610d7b338585840361107f565b5060019392505050565b60006106553384846111a3565b6001600160a01b038181166000908152600a60205260409020546060911615610ee2576001600160a01b038281166000818152600a602052604090819020805460019091015491516331a9108f60e11b8152600481018390529316929091908390636352211e9060240160206040518083038186803b158015610e1457600080fd5b505afa158015610e28573d6000803e3d6000fd5b505050506040513d601f19601f82011682018060405250810190610e4c919061155e565b6001600160a01b03161415610edf5760405163c87b56dd60e01b8152600481018290526001600160a01b0383169063c87b56dd9060240160006040518083038186803b158015610e9b57600080fd5b505afa158015610eaf573d6000803e3d6000fd5b505050506040513d6000823e601f3d908101601f19168201604052610ed79190810190611696565b949350505050565b50505b6001600160a01b03821660009081526008602052604081208054610f05906118c7565b905011156106d1576001600160a01b03821660009081526008602090815260409182902091516106bb926006929091016117a1565b60003411610f825760405162461bcd60e51b8152602060048201526015602482015274111bdb985d1a5bdb881a5b9cdd59999a58da595b9d605a1b6044820152606401610549565b610f8c33346113c3565b3360009081526007602052604081208054349290610fab908490611877565b909155505060405134815233907f468bb967b2a541c62b036ff215eec60aeec51236016d6250a405472a36d4edec9060200160405180910390a2565b6000546001600160a01b031633146110115760405162461bcd60e51b8152600401610549906117e9565b6001600160a01b0381166110765760405162461bcd60e51b815260206004820152602660248201527f4f776e61626c653a206e6577206f776e657220697320746865207a65726f206160448201526564647265737360d01b6064820152608401610549565b610a7181611373565b6001600160a01b0383166110e15760405162461bcd60e51b8152602060048201526024808201527f45524332303a20617070726f76652066726f6d20746865207a65726f206164646044820152637265737360e01b6064820152608401610549565b6001600160a01b0382166111425760405162461bcd60e51b815260206004820152602260248201527f45524332303a20617070726f766520746f20746865207a65726f206164647265604482015261737360f01b6064820152608401610549565b6001600160a01b0383811660008181526002602090815260408083209487168084529482529182902085905590518481527f8c5be1e5ebec7d5bd14f71427d1e84f3dd0314c0f7b2291e5b200ac8c7c3b925910160405180910390a3505050565b6001600160a01b0383166112075760405162461bcd60e51b815260206004820152602560248201527f45524332303a207472616e736665722066726f6d20746865207a65726f206164604482015264647265737360d81b6064820152608401610549565b6001600160a01b0382166112695760405162461bcd60e51b815260206004820152602360248201527f45524332303a207472616e7366657220746f20746865207a65726f206164647260448201526265737360e81b6064820152608401610549565b6001600160a01b038316600090815260016020526040902054818110156112e15760405162461bcd60e51b815260206004820152602660248201527f45524332303a207472616e7366657220616d6f756e7420657863656564732062604482015265616c616e636560d01b6064820152608401610549565b6001600160a01b03808516600090815260016020526040808220858503905591851681529081208054849290611318908490611877565b92505081905550826001600160a01b0316846001600160a01b03167fddf252ad1be2c89b69c2b068fc378daa952ba7f163c4a11628f55a4df523b3ef8460405161136491815260200190565b60405180910390a35b50505050565b600080546001600160a01b038381166001600160a01b0319831681178455604051919092169283917f8be0079c531659141344cd1fd0a4f28419497f9722a3daafe3b4186f6b6457e09190a35050565b6001600160a01b0382166114195760405162461bcd60e51b815260206004820152601f60248201527f45524332303a206d696e7420746f20746865207a65726f2061646472657373006044820152606401610549565b806003600082825461142b9190611877565b90915550506001600160a01b03821660009081526001602052604081208054839290611458908490611877565b90915550506040518181526001600160a01b038316906000907fddf252ad1be2c89b69c2b068fc378daa952ba7f163c4a11628f55a4df523b3ef9060200160405180910390a35050565b8280546114ae906118c7565b90600052602060002090601f0160209004810192826114d05760008555611516565b82601f106114e957805160ff1916838001178555611516565b82800160010185558215611516579182015b828111156115165782518255916020019190600101906114fb565b50611522929150611526565b5090565b5b808211156115225760008155600101611527565b60006020828403121561154c578081fd5b813561155781611918565b9392505050565b60006020828403121561156f578081fd5b815161155781611918565b6000806040838503121561158c578081fd5b823561159781611918565b915060208301356115a781611918565b809150509250929050565b6000806000606084860312156115c6578081fd5b83356115d181611918565b925060208401356115e181611918565b929592945050506040919091013590565b60008060408385031215611604578182fd5b823561160f81611918565b946020939093013593505050565b60006020828403121561162e578081fd5b813567ffffffffffffffff811115611644578182fd5b8201601f81018413611654578182fd5b80356116676116628261184f565b61181e565b81815285602083850101111561167b578384fd5b81602084016020830137908101602001929092525092915050565b6000602082840312156116a7578081fd5b815167ffffffffffffffff8111156116bd578182fd5b8201601f810184136116cd578182fd5b80516116db6116628261184f565b8181528560208385010111156116ef578384fd5b61170082602083016020860161189b565b95945050505050565b8054600090600181811c908083168061172357607f831692505b602080841082141561174357634e487b7160e01b86526022600452602486fd5b818015611757576001811461176857611795565b60ff19861689528489019650611795565b60008881526020902060005b8681101561178d5781548b820152908501908301611774565b505084890196505b50505050505092915050565b6000610ed76117b08386611709565b84611709565b60208152600082518060208401526117d581604085016020870161189b565b601f01601f19169190910160400192915050565b6020808252818101527f4f776e61626c653a2063616c6c6572206973206e6f7420746865206f776e6572604082015260600190565b604051601f8201601f1916810167ffffffffffffffff8111828210171561184757611847611902565b604052919050565b600067ffffffffffffffff82111561186957611869611902565b50601f01601f191660200190565b6000821982111561189657634e487b7160e01b81526011600452602481fd5b500190565b60005b838110156118b657818101518382015260200161189e565b8381111561136d5750506000910152565b600181811c908216806118db57607f821691505b602082108114156118fc57634e487b7160e01b600052602260045260246000fd5b50919050565b634e487b7160e01b600052604160045260246000fd5b6001600160a01b0381168114610a7157600080fdfea2646970667358221220262f6850c325ae12d2f85763050b979c8b922941fe94875f1f956f71582f8aef64736f6c63430008040033",
  "devdoc": {
    "kind": "dev",
    "methods": {
      "allowance(address,address)": {
        "details": "See {IERC20-allowance}."
      },
      "approve(address,uint256)": {
        "details": "See {IERC20-approve}. Requirements: - `spender` cannot be the zero address."
      },
      "balanceOf(address)": {
        "details": "See {IERC20-balanceOf}."
      },
      "decimals()": {
        "details": "Returns the number of decimals used to get its user representation. For example, if `decimals` equals `2`, a balance of `505` tokens should be displayed to a user as `5,05` (`505 / 10 ** 2`). Tokens usually opt for a value of 18, imitating the relationship between Ether and Wei. This is the value {ERC20} uses, unless this function is overridden; NOTE: This information is only used for _display_ purposes: it in no way affects any of the arithmetic of the contract, including {IERC20-balanceOf} and {IERC20-transfer}."
      },
      "decreaseAllowance(address,uint256)": {
        "details": "Atomically decreases the allowance granted to `spender` by the caller. This is an alternative to {approve} that can be used as a mitigation for problems described in {IERC20-approve}. Emits an {Approval} event indicating the updated allowance. Requirements: - `spender` cannot be the zero address. - `spender` must have allowance for the caller of at least `subtractedValue`."
      },
      "increaseAllowance(address,uint256)": {
        "details": "Atomically increases the allowance granted to `spender` by the caller. This is an alternative to {approve} that can be used as a mitigation for problems described in {IERC20-approve}. Emits an {Approval} event indicating the updated allowance. Requirements: - `spender` cannot be the zero address."
      },
      "name()": {
        "details": "Returns the name of the token."
      },
      "owner()": {
        "details": "Returns the address of the current owner."
      },
      "renounceOwnership()": {
        "details": "Leaves the contract without owner. It will not be possible to call `onlyOwner` functions anymore. Can only be called by the current owner. NOTE: Renouncing ownership will leave the contract without an owner, thereby removing any functionality that is only available to the owner."
      },
      "symbol()": {
        "details": "Returns the symbol of the token, usually a shorter version of the name."
      },
      "totalSupply()": {
        "details": "See {IERC20-totalSupply}."
      },
      "transfer(address,uint256)": {
        "details": "See {IERC20-transfer}. Requirements: - `recipient` cannot be the zero address. - the caller must have a balance of at least `amount`."
      },
      "transferFrom(address,address,uint256)": {
        "details": "See {IERC20-transferFrom}. Emits an {Approval} event indicating the updated allowance. This is not required by the EIP. See the note at the beginning of {ERC20}. Requirements: - `sender` and `recipient` cannot be the zero address. - `sender` must have a balance of at least `amount`. - the caller must have allowance for ``sender``'s tokens of at least `amount`."
      },
      "transferOwnership(address)": {
        "details": "Transfers ownership of the contract to a new account (`newOwner`). Can only be called by the current owner."
      }
    },
    "version": 1
  },
  "userdoc": {
    "kind": "user",
    "methods": {},
    "version": 1
  },
  "storageLayout": {
    "storage": [
      {
        "astId": 7,
        "contract": "contracts/BCRAvatar.sol:BCRAvatar",
        "label": "_owner",
        "offset": 0,
        "slot": "0",
        "type": "t_address"
      },
      {
        "astId": 119,
        "contract": "contracts/BCRAvatar.sol:BCRAvatar",
        "label": "_balances",
        "offset": 0,
        "slot": "1",
        "type": "t_mapping(t_address,t_uint256)"
      },
      {
        "astId": 125,
        "contract": "contracts/BCRAvatar.sol:BCRAvatar",
        "label": "_allowances",
        "offset": 0,
        "slot": "2",
        "type": "t_mapping(t_address,t_mapping(t_address,t_uint256))"
      },
      {
        "astId": 127,
        "contract": "contracts/BCRAvatar.sol:BCRAvatar",
        "label": "_totalSupply",
        "offset": 0,
        "slot": "3",
        "type": "t_uint256"
      },
      {
        "astId": 129,
        "contract": "contracts/BCRAvatar.sol:BCRAvatar",
        "label": "_name",
        "offset": 0,
        "slot": "4",
        "type": "t_string_storage"
      },
      {
        "astId": 131,
        "contract": "contracts/BCRAvatar.sol:BCRAvatar",
        "label": "_symbol",
        "offset": 0,
        "slot": "5",
        "type": "t_string_storage"
      },
      {
        "astId": 2543,
        "contract": "contracts/BCRAvatar.sol:BCRAvatar",
        "label": "baseURI",
        "offset": 0,
        "slot": "6",
        "type": "t_string_storage"
      },
      {
        "astId": 2547,
        "contract": "contracts/BCRAvatar.sol:BCRAvatar",
        "label": "donations",
        "offset": 0,
        "slot": "7",
        "type": "t_mapping(t_address,t_uint256)"
      },
      {
        "astId": 2551,
        "contract": "contracts/BCRAvatar.sol:BCRAvatar",
        "label": "avatars",
        "offset": 0,
        "slot": "8",
        "type": "t_mapping(t_address,t_string_storage)"
      },
      {
        "astId": 2555,
        "contract": "contracts/BCRAvatar.sol:BCRAvatar",
        "label": "profiles",
        "offset": 0,
        "slot": "9",
        "type": "t_mapping(t_address,t_string_storage)"
      },
      {
        "astId": 2560,
        "contract": "contracts/BCRAvatar.sol:BCRAvatar",
        "label": "avatarNFTs",
        "offset": 0,
        "slot": "10",
        "type": "t_mapping(t_address,t_struct(AvatarNFT)2504_storage)"
      }
    ],
    "types": {
      "t_address": {
        "encoding": "inplace",
        "label": "address",
        "numberOfBytes": "20"
      },
      "t_mapping(t_address,t_mapping(t_address,t_uint256))": {
        "encoding": "mapping",
        "key": "t_address",
        "label": "mapping(address => mapping(address => uint256))",
        "numberOfBytes": "32",
        "value": "t_mapping(t_address,t_uint256)"
      },
      "t_mapping(t_address,t_string_storage)": {
        "encoding": "mapping",
        "key": "t_address",
        "label": "mapping(address => string)",
        "numberOfBytes": "32",
        "value": "t_string_storage"
      },
      "t_mapping(t_address,t_struct(AvatarNFT)2504_storage)": {
        "encoding": "mapping",
        "key": "t_address",
        "label": "mapping(address => struct BCRAvatar.AvatarNFT)",
        "numberOfBytes": "32",
        "value": "t_struct(AvatarNFT)2504_storage"
      },
      "t_mapping(t_address,t_uint256)": {
        "encoding": "mapping",
        "key": "t_address",
        "label": "mapping(address => uint256)",
        "numberOfBytes": "32",
        "value": "t_uint256"
      },
      "t_string_storage": {
        "encoding": "bytes",
        "label": "string",
        "numberOfBytes": "32"
      },
      "t_struct(AvatarNFT)2504_storage": {
        "encoding": "inplace",
        "label": "struct BCRAvatar.AvatarNFT",
        "members": [
          {
            "astId": 2501,
            "contract": "contracts/BCRAvatar.sol:BCRAvatar",
            "label": "_contract",
            "offset": 0,
            "slot": "0",
            "type": "t_address"
          },
          {
            "astId": 2503,
            "contract": "contracts/BCRAvatar.sol:BCRAvatar",
            "label": "tokenId",
            "offset": 0,
            "slot": "1",
            "type": "t_uint256"
          }
        ],
        "numberOfBytes": "64"
      },
      "t_uint256": {
        "encoding": "inplace",
        "label": "uint256",
        "numberOfBytes": "32"
      }
    }
  }
}