{
  "address": "0xBb9499d98C01D97Cc02B40Fa767531c308989995",
  "abi": [
    {
      "inputs": [],
      "stateMutability": "nonpayable",
      "type": "constructor"
    },
    {
      "anonymous": false,
      "inputs": [
        {
          "indexed": true,
          "internalType": "address",
          "name": "owner",
          "type": "address"
        },
        {
          "indexed": true,
          "internalType": "address",
          "name": "spender",
          "type": "address"
        },
        {
          "indexed": false,
          "internalType": "uint256",
          "name": "value",
          "type": "uint256"
        }
      ],
      "name": "Approval",
      "type": "event"
    },
    {
      "anonymous": false,
      "inputs": [
        {
          "indexed": true,
          "internalType": "address",
          "name": "account",
          "type": "address"
        },
        {
          "indexed": false,
          "internalType": "string",
          "name": "avatarURI",
          "type": "string"
        }
      ],
      "name": "AvatarCreated",
      "type": "event"
    },
    {
      "anonymous": false,
      "inputs": [
        {
          "indexed": true,
          "internalType": "address",
          "name": "account",
          "type": "address"
        },
        {
          "indexed": false,
          "internalType": "string",
          "name": "avatarURI",
          "type": "string"
        }
      ],
      "name": "AvatarUpdated",
      "type": "event"
    },
    {
      "anonymous": false,
      "inputs": [
        {
          "indexed": true,
          "internalType": "address",
          "name": "account",
          "type": "address"
        },
        {
          "indexed": false,
          "internalType": "string",
          "name": "avatarURI",
          "type": "string"
        }
      ],
      "name": "ContractAvatarCreated",
      "type": "event"
    },
    {
      "anonymous": false,
      "inputs": [
        {
          "indexed": true,
          "internalType": "address",
          "name": "account",
          "type": "address"
        },
        {
          "indexed": false,
          "internalType": "string",
          "name": "avatarURI",
          "type": "string"
        }
      ],
      "name": "ContractAvatarUpdated",
      "type": "event"
    },
    {
      "anonymous": false,
      "inputs": [
        {
          "indexed": true,
          "internalType": "address",
          "name": "account",
          "type": "address"
        },
        {
          "indexed": false,
          "internalType": "string",
          "name": "profileURI",
          "type": "string"
        }
      ],
      "name": "ContractProfileCreated",
      "type": "event"
    },
    {
      "anonymous": false,
      "inputs": [
        {
          "indexed": true,
          "internalType": "address",
          "name": "account",
          "type": "address"
        },
        {
          "indexed": false,
          "internalType": "string",
          "name": "profileURI",
          "type": "string"
        }
      ],
      "name": "ContractProfileUpdated",
      "type": "event"
    },
    {
      "anonymous": false,
      "inputs": [
        {
          "indexed": true,
          "internalType": "address",
          "name": "account",
          "type": "address"
        }
      ],
      "name": "NFTDeRegistered",
      "type": "event"
    },
    {
      "anonymous": false,
      "inputs": [
        {
          "indexed": true,
          "internalType": "address",
          "name": "account",
          "type": "address"
        }
      ],
      "name": "NFTRegistered",
      "type": "event"
    },
    {
      "anonymous": false,
      "inputs": [
        {
          "indexed": true,
          "internalType": "address",
          "name": "previousOwner",
          "type": "address"
        },
        {
          "indexed": true,
          "internalType": "address",
          "name": "newOwner",
          "type": "address"
        }
      ],
      "name": "OwnershipTransferred",
      "type": "event"
    },
    {
      "anonymous": false,
      "inputs": [
        {
          "indexed": true,
          "internalType": "address",
          "name": "account",
          "type": "address"
        },
        {
          "indexed": false,
          "internalType": "string",
          "name": "profileURI",
          "type": "string"
        }
      ],
      "name": "ProfileCreated",
      "type": "event"
    },
    {
      "anonymous": false,
      "inputs": [
        {
          "indexed": true,
          "internalType": "address",
          "name": "account",
          "type": "address"
        },
        {
          "indexed": false,
          "internalType": "string",
          "name": "profileURI",
          "type": "string"
        }
      ],
      "name": "ProfileUpdated",
      "type": "event"
    },
    {
      "anonymous": false,
      "inputs": [
        {
          "indexed": true,
          "internalType": "address",
          "name": "account",
          "type": "address"
        },
        {
          "indexed": false,
          "internalType": "uint256",
          "name": "amount",
          "type": "uint256"
        }
      ],
      "name": "ServiceDonated",
      "type": "event"
    },
    {
      "anonymous": false,
      "inputs": [
        {
          "indexed": true,
          "internalType": "address",
          "name": "from",
          "type": "address"
        },
        {
          "indexed": true,
          "internalType": "address",
          "name": "to",
          "type": "address"
        },
        {
          "indexed": false,
          "internalType": "uint256",
          "name": "value",
          "type": "uint256"
        }
      ],
      "name": "Transfer",
      "type": "event"
    },
    {
      "inputs": [
        {
          "internalType": "address",
          "name": "owner",
          "type": "address"
        },
        {
          "internalType": "address",
          "name": "spender",
          "type": "address"
        }
      ],
      "name": "allowance",
      "outputs": [
        {
          "internalType": "uint256",
          "name": "",
          "type": "uint256"
        }
      ],
      "stateMutability": "view",
      "type": "function"
    },
    {
      "inputs": [
        {
          "internalType": "address",
          "name": "spender",
          "type": "address"
        },
        {
          "internalType": "uint256",
          "name": "amount",
          "type": "uint256"
        }
      ],
      "name": "approve",
      "outputs": [
        {
          "internalType": "bool",
          "name": "",
          "type": "bool"
        }
      ],
      "stateMutability": "nonpayable",
      "type": "function"
    },
    {
      "inputs": [
        {
          "internalType": "address",
          "name": "",
          "type": "address"
        }
      ],
      "name": "avatarNFTs",
      "outputs": [
        {
          "internalType": "address",
          "name": "nft",
          "type": "address"
        },
        {
          "internalType": "uint256",
          "name": "tokenId",
          "type": "uint256"
        },
        {
          "internalType": "bool",
          "name": "isERC721",
          "type": "bool"
        }
      ],
      "stateMutability": "view",
      "type": "function"
    },
    {
      "inputs": [
        {
          "internalType": "address",
          "name": "account",
          "type": "address"
        }
      ],
      "name": "balanceOf",
      "outputs": [
        {
          "internalType": "uint256",
          "name": "",
          "type": "uint256"
        }
      ],
      "stateMutability": "view",
      "type": "function"
    },
    {
      "inputs": [],
      "name": "baseURI",
      "outputs": [
        {
          "internalType": "string",
          "name": "",
          "type": "string"
        }
      ],
      "stateMutability": "view",
      "type": "function"
    },
    {
      "inputs": [
        {
          "internalType": "address",
          "name": "",
          "type": "address"
        }
      ],
      "name": "contracts",
      "outputs": [
        {
          "internalType": "bool",
          "name": "",
          "type": "bool"
        }
      ],
      "stateMutability": "view",
      "type": "function"
    },
    {
      "inputs": [],
      "name": "deRegisterNFT",
      "outputs": [],
      "stateMutability": "nonpayable",
      "type": "function"
    },
    {
      "inputs": [],
      "name": "decimals",
      "outputs": [
        {
          "internalType": "uint8",
          "name": "",
          "type": "uint8"
        }
      ],
      "stateMutability": "view",
      "type": "function"
    },
    {
      "inputs": [
        {
          "internalType": "address",
          "name": "spender",
          "type": "address"
        },
        {
          "internalType": "uint256",
          "name": "subtractedValue",
          "type": "uint256"
        }
      ],
      "name": "decreaseAllowance",
      "outputs": [
        {
          "internalType": "bool",
          "name": "",
          "type": "bool"
        }
      ],
      "stateMutability": "nonpayable",
      "type": "function"
    },
    {
      "inputs": [],
      "name": "donate",
      "outputs": [],
      "stateMutability": "payable",
      "type": "function"
    },
    {
      "inputs": [
        {
          "internalType": "address",
          "name": "account",
          "type": "address"
        }
      ],
      "name": "getAvatar",
      "outputs": [
        {
          "internalType": "string",
          "name": "",
          "type": "string"
        }
      ],
      "stateMutability": "view",
      "type": "function"
    },
    {
      "inputs": [
        {
          "internalType": "address",
          "name": "account",
          "type": "address"
        }
      ],
      "name": "getProfile",
      "outputs": [
        {
          "internalType": "string",
          "name": "",
          "type": "string"
        }
      ],
      "stateMutability": "view",
      "type": "function"
    },
    {
      "inputs": [
        {
          "internalType": "address",
          "name": "spender",
          "type": "address"
        },
        {
          "internalType": "uint256",
          "name": "addedValue",
          "type": "uint256"
        }
      ],
      "name": "increaseAllowance",
      "outputs": [
        {
          "internalType": "bool",
          "name": "",
          "type": "bool"
        }
      ],
      "stateMutability": "nonpayable",
      "type": "function"
    },
    {
      "inputs": [],
      "name": "name",
      "outputs": [
        {
          "internalType": "string",
          "name": "",
          "type": "string"
        }
      ],
      "stateMutability": "view",
      "type": "function"
    },
    {
      "inputs": [],
      "name": "owner",
      "outputs": [
        {
          "internalType": "address",
          "name": "",
          "type": "address"
        }
      ],
      "stateMutability": "view",
      "type": "function"
    },
    {
      "inputs": [
        {
          "internalType": "address",
          "name": "nft",
          "type": "address"
        },
        {
          "internalType": "uint256",
          "name": "tokenId",
          "type": "uint256"
        },
        {
          "internalType": "bool",
          "name": "isERC721",
          "type": "bool"
        }
      ],
      "name": "registerNFT",
      "outputs": [],
      "stateMutability": "nonpayable",
      "type": "function"
    },
    {
      "inputs": [],
      "name": "renounceOwnership",
      "outputs": [],
      "stateMutability": "nonpayable",
      "type": "function"
    },
    {
      "inputs": [
        {
          "internalType": "string",
          "name": "avatarHash",
          "type": "string"
        }
      ],
      "name": "setAvatar",
      "outputs": [],
      "stateMutability": "nonpayable",
      "type": "function"
    },
    {
      "inputs": [
        {
          "internalType": "address",
          "name": "account",
          "type": "address"
        },
        {
          "internalType": "string",
          "name": "avatarHash",
          "type": "string"
        }
      ],
      "name": "setContractAvatar",
      "outputs": [],
      "stateMutability": "nonpayable",
      "type": "function"
    },
    {
      "inputs": [
        {
          "internalType": "address",
          "name": "account",
          "type": "address"
        },
        {
          "internalType": "string",
          "name": "profileHash",
          "type": "string"
        }
      ],
      "name": "setContractProfile",
      "outputs": [],
      "stateMutability": "nonpayable",
      "type": "function"
    },
    {
      "inputs": [
        {
          "internalType": "address",
          "name": "account",
          "type": "address"
        },
        {
          "internalType": "string",
          "name": "avatarHash",
          "type": "string"
        }
      ],
      "name": "setOwnableContractAvatar",
      "outputs": [],
      "stateMutability": "nonpayable",
      "type": "function"
    },
    {
      "inputs": [
        {
          "internalType": "address",
          "name": "account",
          "type": "address"
        },
        {
          "internalType": "string",
          "name": "profileHash",
          "type": "string"
        }
      ],
      "name": "setOwnableContractProfile",
      "outputs": [],
      "stateMutability": "nonpayable",
      "type": "function"
    },
    {
      "inputs": [
        {
          "internalType": "string",
          "name": "profileHash",
          "type": "string"
        }
      ],
      "name": "setProfile",
      "outputs": [],
      "stateMutability": "nonpayable",
      "type": "function"
    },
    {
      "inputs": [],
      "name": "symbol",
      "outputs": [
        {
          "internalType": "string",
          "name": "",
          "type": "string"
        }
      ],
      "stateMutability": "view",
      "type": "function"
    },
    {
      "inputs": [],
      "name": "totalSupply",
      "outputs": [
        {
          "internalType": "uint256",
          "name": "",
          "type": "uint256"
        }
      ],
      "stateMutability": "view",
      "type": "function"
    },
    {
      "inputs": [
        {
          "internalType": "address",
          "name": "recipient",
          "type": "address"
        },
        {
          "internalType": "uint256",
          "name": "amount",
          "type": "uint256"
        }
      ],
      "name": "transfer",
      "outputs": [
        {
          "internalType": "bool",
          "name": "",
          "type": "bool"
        }
      ],
      "stateMutability": "nonpayable",
      "type": "function"
    },
    {
      "inputs": [
        {
          "internalType": "address",
          "name": "sender",
          "type": "address"
        },
        {
          "internalType": "address",
          "name": "recipient",
          "type": "address"
        },
        {
          "internalType": "uint256",
          "name": "amount",
          "type": "uint256"
        }
      ],
      "name": "transferFrom",
      "outputs": [
        {
          "internalType": "bool",
          "name": "",
          "type": "bool"
        }
      ],
      "stateMutability": "nonpayable",
      "type": "function"
    },
    {
      "inputs": [
        {
          "internalType": "address",
          "name": "newOwner",
          "type": "address"
        }
      ],
      "name": "transferOwnership",
      "outputs": [],
      "stateMutability": "nonpayable",
      "type": "function"
    },
    {
      "inputs": [],
      "name": "withdraw",
      "outputs": [],
      "stateMutability": "nonpayable",
      "type": "function"
    }
  ],
  "transactionHash": "0x80af77ffa2abd4f9a0dd754044697b4b2332e2f1bcfc3d3ed807fb386ca67018",
  "args": [],
  "solcInputHash": "7d7d12117bb9e26bc114ef9441c59ff9",
  "bytecode": "0x60c0604052601560808190527f68747470733a2f2f697066732e696f2f697066732f000000000000000000000060a090815262000040916006919062000144565b503480156200004e57600080fd5b506040518060400160405280601c81526020017f426c6f636b636861696e20526567697374657265642041766174617200000000815250604051806040016040528060048152602001634243524160e01b815250620000bc620000b6620000f060201b60201c565b620000f4565b8151620000d190600490602085019062000144565b508051620000e790600590602084019062000144565b50505062000227565b3390565b600080546001600160a01b038381166001600160a01b0319831681178455604051919092169283917f8be0079c531659141344cd1fd0a4f28419497f9722a3daafe3b4186f6b6457e09190a35050565b8280546200015290620001ea565b90600052602060002090601f016020900481019282620001765760008555620001c1565b82601f106200019157805160ff1916838001178555620001c1565b82800160010185558215620001c1579182015b82811115620001c1578251825591602001919060010190620001a4565b50620001cf929150620001d3565b5090565b5b80821115620001cf5760008155600101620001d4565b600181811c90821680620001ff57607f821691505b602082108114156200022157634e487b7160e01b600052602260045260246000fd5b50919050565b611f8880620002376000396000f3fe6080604052600436106101c25760003560e01c80636ec5239f116100f7578063a9059cbb11610095578063dd62ed3e11610064578063dd62ed3e14610551578063ed88c68e14610597578063f2fde38b1461059f578063fd4485b9146105bf57600080fd5b8063a9059cbb146104d1578063ce8ac033146104f1578063dbd1838314610511578063dc0d75b01461053157600080fd5b806385f75293116100d157806385f75293146104045780638da5cb5b1461047457806395d89b411461049c578063a457c2d7146104b157600080fd5b80636ec5239f1461039957806370a08231146103b9578063715018a6146103ef57600080fd5b8063313ce5671161016457806364635ebc1161013e57806364635ebc14610314578063680563061461033457806369dc9ff3146103545780636c0360eb1461038457600080fd5b8063313ce567146102c357806339509351146102df5780633ccfd60b146102ff57600080fd5b80631587fb27116101a05780631587fb271461024257806318160ddd14610264578063235b37b11461028357806323b872dd146102a357600080fd5b806306fdde03146101c7578063095ea7b3146101f25780630f53a47014610222575b600080fd5b3480156101d357600080fd5b506101dc6105d4565b6040516101e99190611db4565b60405180910390f35b3480156101fe57600080fd5b5061021261020d366004611bd9565b610666565b60405190151581526020016101e9565b34801561022e57600080fd5b506101dc61023d366004611ad4565b61067c565b34801561024e57600080fd5b5061026261025d366004611b8b565b610703565b005b34801561027057600080fd5b506003545b6040519081526020016101e9565b34801561028f57600080fd5b5061026261029e366004611c49565b61086c565b3480156102af57600080fd5b506102126102be366004611b4b565b610923565b3480156102cf57600080fd5b50604051601281526020016101e9565b3480156102eb57600080fd5b506102126102fa366004611bd9565b6109cd565b34801561030b57600080fd5b50610262610a09565b34801561032057600080fd5b5061026261032f366004611b8b565b610ab6565b34801561034057600080fd5b5061026261034f366004611b8b565b610bfc565b34801561036057600080fd5b5061021261036f366004611ad4565b600b6020526000908152604090205460ff1681565b34801561039057600080fd5b506101dc610c9d565b3480156103a557600080fd5b506102626103b4366004611c49565b610d2b565b3480156103c557600080fd5b506102756103d4366004611ad4565b6001600160a01b031660009081526001602052604090205490565b3480156103fb57600080fd5b50610262610dc9565b34801561041057600080fd5b5061044d61041f366004611ad4565b600a602052600090815260409020805460018201546002909201546001600160a01b03909116919060ff1683565b604080516001600160a01b03909416845260208401929092521515908201526060016101e9565b34801561048057600080fd5b506000546040516001600160a01b0390911681526020016101e9565b3480156104a857600080fd5b506101dc610dff565b3480156104bd57600080fd5b506102126104cc366004611bd9565b610e0e565b3480156104dd57600080fd5b506102126104ec366004611bd9565b610ea7565b3480156104fd57600080fd5b506101dc61050c366004611ad4565b610eb4565b34801561051d57600080fd5b5061026261052c366004611c04565b61112e565b34801561053d57600080fd5b5061026261054c366004611b8b565b611330565b34801561055d57600080fd5b5061027561056c366004611b13565b6001600160a01b03918216600090815260026020908152604080832093909416825291909152205490565b6102626113d1565b3480156105ab57600080fd5b506102626105ba366004611ad4565b61147e565b3480156105cb57600080fd5b50610262611516565b6060600480546105e390611eec565b80601f016020809104026020016040519081016040528092919081815260200182805461060f90611eec565b801561065c5780601f106106315761010080835404028352916020019161065c565b820191906000526020600020905b81548152906001019060200180831161063f57829003601f168201915b5050505050905090565b60006106733384846115c7565b50600192915050565b6001600160a01b0381166000908152600960205260408120805460609291906106a490611eec565b905011156106ef576001600160a01b03821660009081526009602090815260409182902091516106d992600692909101611d9f565b6040516020818303038152906040529050919050565b505060408051602081019091526000815290565b6000546001600160a01b031633146107365760405162461bcd60e51b815260040161072d90611e0e565b60405180910390fd5b813b6107775760405162461bcd60e51b815260206004820152601060248201526f10dbdb9d1c9858dd081a5b9d985b1a5960821b604482015260640161072d565b6001600160a01b0382166000908152600960205260408120805461079a90611eec565b6001600160a01b03851660009081526009602090815260409091208551921594506107ca935091908501906119ea565b508015610838576001600160a01b0383166000818152600b60205260409020805460ff191660011790557f9f744f09fc8f1197f6533ba42aab750ccb8047c53da4f27410422b2fc872b99661081e8561067c565b60405161082b9190611db4565b60405180910390a2505050565b826001600160a01b03167febf2a104a1845e326777e9ef4e98f6f40343903564ffbce0586cbca9cd8926c561081e8561067c565b336000908152600960205260408120805461088690611eec565b3360009081526009602090815260409091208551921594506108ad935091908501906119ea565b5080156108f857337fbafddecbd1dec1c1afb76d693f1de16901f521bdf29a02438e3e6806c0b8d9486108df8261067c565b6040516108ec9190611db4565b60405180910390a25050565b337fdd635a4cd84864e37e4479dbfc2ec667acfa473c83c8422a8ac9d9d07599b01c6108df8261067c565b60006109308484846116eb565b6001600160a01b0384166000908152600260209081526040808320338452909152902054828110156109b55760405162461bcd60e51b815260206004820152602860248201527f45524332303a207472616e7366657220616d6f756e74206578636565647320616044820152676c6c6f77616e636560c01b606482015260840161072d565b6109c285338584036115c7565b506001949350505050565b3360008181526002602090815260408083206001600160a01b03871684529091528120549091610673918590610a04908690611e9c565b6115c7565b6000546001600160a01b03163314610a335760405162461bcd60e51b815260040161072d90611e0e565b60004711610a795760405162461bcd60e51b8152602060048201526013602482015272105b5bdd5b9d081a5b9cdd59999a58da595b9d606a1b604482015260640161072d565b600080546040516001600160a01b03909116914780156108fc02929091818181858888f19350505050158015610ab3573d6000803e3d6000fd5b50565b6000546001600160a01b03163314610ae05760405162461bcd60e51b815260040161072d90611e0e565b813b610b215760405162461bcd60e51b815260206004820152601060248201526f10dbdb9d1c9858dd081a5b9d985b1a5960821b604482015260640161072d565b6001600160a01b03821660009081526008602052604081208054610b4490611eec565b6001600160a01b0385166000908152600860209081526040909120855192159450610b74935091908501906119ea565b508015610bc8576001600160a01b0383166000818152600b60205260409020805460ff191660011790557fa11242986e21965d8f93d5f585311fc31dbc4ef21c5dc092c793f9eebbc3597761081e85610eb4565b826001600160a01b03167f796eb690fa486af3224f8119f41c63fdf33965351be20231aae6f2ede7233b4361081e85610eb4565b336001600160a01b0316826001600160a01b0316638da5cb5b6040518163ffffffff1660e01b815260040160206040518083038186803b158015610c3f57600080fd5b505afa158015610c53573d6000803e3d6000fd5b505050506040513d601f19601f82011682018060405250810190610c779190611af7565b6001600160a01b031614610b215760405162461bcd60e51b815260040161072d90611de7565b60068054610caa90611eec565b80601f0160208091040260200160405190810160405280929190818152602001828054610cd690611eec565b8015610d235780601f10610cf857610100808354040283529160200191610d23565b820191906000526020600020905b815481529060010190602001808311610d0657829003601f168201915b505050505081565b3360009081526008602052604081208054610d4590611eec565b336000908152600860209081526040909120855192159450610d6c935091908501906119ea565b508015610d9e57337f713b884fa85d657dab3084902090821951d956678e51a03b2a550a0a39c063f36108df82610eb4565b337fed6fbee54fb754678a908527ed51cf00840e56cca6b00760c99382dccf6866f96108df82610eb4565b6000546001600160a01b03163314610df35760405162461bcd60e51b815260040161072d90611e0e565b610dfd60006118bb565b565b6060600580546105e390611eec565b3360009081526002602090815260408083206001600160a01b038616845290915281205482811015610e905760405162461bcd60e51b815260206004820152602560248201527f45524332303a2064656372656173656420616c6c6f77616e63652062656c6f77604482015264207a65726f60d81b606482015260840161072d565b610e9d33858584036115c7565b5060019392505050565b60006106733384846116eb565b6001600160a01b038181166000908152600a602052604090205460609116156110d6576001600160a01b038083166000908152600a602052604090208054600182015460029092015492169160ff161561101e576040516331a9108f60e11b8152600481018290526001600160a01b038086169190841690636352211e9060240160206040518083038186803b158015610f4d57600080fd5b505afa158015610f61573d6000803e3d6000fd5b505050506040513d601f19601f82011682018060405250810190610f859190611af7565b6001600160a01b031614156110195760405163c87b56dd60e01b8152600481018290526001600160a01b0383169063c87b56dd906024015b60006040518083038186803b158015610fd557600080fd5b505afa158015610fe9573d6000803e3d6000fd5b505050506040513d6000823e601f3d908101601f191682016040526110119190810190611c7c565b949350505050565b6110d3565b604051627eeac760e11b81526001600160a01b038581166004830152602482018390526000919084169062fdd58e9060440160206040518083038186803b15801561106857600080fd5b505afa15801561107c573d6000803e3d6000fd5b505050506040513d601f19601f820116820180604052508101906110a09190611cef565b11156110d3576040516303a24d0760e21b8152600481018290526001600160a01b03831690630e89341c90602401610fbd565b50505b6001600160a01b038216600090815260086020526040812080546110f990611eec565b905011156106ef576001600160a01b03821660009081526008602090815260409182902091516106d992600692909101611d9f565b80156111d9576040516331a9108f60e11b81526004810183905233906001600160a01b03851690636352211e9060240160206040518083038186803b15801561117657600080fd5b505afa15801561118a573d6000803e3d6000fd5b505050506040513d601f19601f820116820180604052508101906111ae9190611af7565b6001600160a01b0316146111d45760405162461bcd60e51b815260040161072d90611de7565b61129c565b604051627eeac760e11b8152336004820152602481018390526000906001600160a01b0385169062fdd58e9060440160206040518083038186803b15801561122057600080fd5b505afa158015611234573d6000803e3d6000fd5b505050506040513d601f19601f820116820180604052508101906112589190611cef565b1161129c5760405162461bcd60e51b815260206004820152601460248201527310985b185b98d9481a5b9cdd59999a58da595b9d60621b604482015260640161072d565b604080516060810182526001600160a01b0385811682526020808301868152851515848601908152336000818152600a909452868420955186546001600160a01b031916951694909417855590516001850155516002909301805460ff19169315159390931790925591517febbf08e0c6f72650cd47fd7a287defcf3b872b6c42d317a2a7a86ec62e394ffd9190a2505050565b336001600160a01b0316826001600160a01b0316638da5cb5b6040518163ffffffff1660e01b815260040160206040518083038186803b15801561137357600080fd5b505afa158015611387573d6000803e3d6000fd5b505050506040513d601f19601f820116820180604052508101906113ab9190611af7565b6001600160a01b0316146107775760405162461bcd60e51b815260040161072d90611de7565b600034116114195760405162461bcd60e51b8152602060048201526015602482015274111bdb985d1a5bdb881a5b9cdd59999a58da595b9d605a1b604482015260640161072d565b611423333461190b565b3360009081526007602052604081208054349290611442908490611e9c565b909155505060405134815233907f468bb967b2a541c62b036ff215eec60aeec51236016d6250a405472a36d4edec9060200160405180910390a2565b6000546001600160a01b031633146114a85760405162461bcd60e51b815260040161072d90611e0e565b6001600160a01b03811661150d5760405162461bcd60e51b815260206004820152602660248201527f4f776e61626c653a206e6577206f776e657220697320746865207a65726f206160448201526564647265737360d01b606482015260840161072d565b610ab3816118bb565b336000908152600a60205260409020546001600160a01b03166115705760405162461bcd60e51b8152602060048201526012602482015271139195081b9bdd081c9959da5cdd195c995960721b604482015260640161072d565b336000818152600a602052604080822080546001600160a01b031916815560018101839055600201805460ff19169055517fb63279298e3ac7072c4faab7d32ee749119d951fc3d598b92bd9640546a543d19190a2565b6001600160a01b0383166116295760405162461bcd60e51b8152602060048201526024808201527f45524332303a20617070726f76652066726f6d20746865207a65726f206164646044820152637265737360e01b606482015260840161072d565b6001600160a01b03821661168a5760405162461bcd60e51b815260206004820152602260248201527f45524332303a20617070726f766520746f20746865207a65726f206164647265604482015261737360f01b606482015260840161072d565b6001600160a01b0383811660008181526002602090815260408083209487168084529482529182902085905590518481527f8c5be1e5ebec7d5bd14f71427d1e84f3dd0314c0f7b2291e5b200ac8c7c3b925910160405180910390a3505050565b6001600160a01b03831661174f5760405162461bcd60e51b815260206004820152602560248201527f45524332303a207472616e736665722066726f6d20746865207a65726f206164604482015264647265737360d81b606482015260840161072d565b6001600160a01b0382166117b15760405162461bcd60e51b815260206004820152602360248201527f45524332303a207472616e7366657220746f20746865207a65726f206164647260448201526265737360e81b606482015260840161072d565b6001600160a01b038316600090815260016020526040902054818110156118295760405162461bcd60e51b815260206004820152602660248201527f45524332303a207472616e7366657220616d6f756e7420657863656564732062604482015265616c616e636560d01b606482015260840161072d565b6001600160a01b03808516600090815260016020526040808220858503905591851681529081208054849290611860908490611e9c565b92505081905550826001600160a01b0316846001600160a01b03167fddf252ad1be2c89b69c2b068fc378daa952ba7f163c4a11628f55a4df523b3ef846040516118ac91815260200190565b60405180910390a35b50505050565b600080546001600160a01b038381166001600160a01b0319831681178455604051919092169283917f8be0079c531659141344cd1fd0a4f28419497f9722a3daafe3b4186f6b6457e09190a35050565b6001600160a01b0382166119615760405162461bcd60e51b815260206004820152601f60248201527f45524332303a206d696e7420746f20746865207a65726f206164647265737300604482015260640161072d565b80600360008282546119739190611e9c565b90915550506001600160a01b038216600090815260016020526040812080548392906119a0908490611e9c565b90915550506040518181526001600160a01b038316906000907fddf252ad1be2c89b69c2b068fc378daa952ba7f163c4a11628f55a4df523b3ef9060200160405180910390a35050565b8280546119f690611eec565b90600052602060002090601f016020900481019282611a185760008555611a5e565b82601f10611a3157805160ff1916838001178555611a5e565b82800160010185558215611a5e579182015b82811115611a5e578251825591602001919060010190611a43565b50611a6a929150611a6e565b5090565b5b80821115611a6a5760008155600101611a6f565b600082601f830112611a93578081fd5b8135611aa6611aa182611e74565b611e43565b818152846020838601011115611aba578283fd5b816020850160208301379081016020019190915292915050565b600060208284031215611ae5578081fd5b8135611af081611f3d565b9392505050565b600060208284031215611b08578081fd5b8151611af081611f3d565b60008060408385031215611b25578081fd5b8235611b3081611f3d565b91506020830135611b4081611f3d565b809150509250929050565b600080600060608486031215611b5f578081fd5b8335611b6a81611f3d565b92506020840135611b7a81611f3d565b929592945050506040919091013590565b60008060408385031215611b9d578182fd5b8235611ba881611f3d565b9150602083013567ffffffffffffffff811115611bc3578182fd5b611bcf85828601611a83565b9150509250929050565b60008060408385031215611beb578182fd5b8235611bf681611f3d565b946020939093013593505050565b600080600060608486031215611c18578283fd5b8335611c2381611f3d565b92506020840135915060408401358015158114611c3e578182fd5b809150509250925092565b600060208284031215611c5a578081fd5b813567ffffffffffffffff811115611c70578182fd5b61101184828501611a83565b600060208284031215611c8d578081fd5b815167ffffffffffffffff811115611ca3578182fd5b8201601f81018413611cb3578182fd5b8051611cc1611aa182611e74565b818152856020838501011115611cd5578384fd5b611ce6826020830160208601611ec0565b95945050505050565b600060208284031215611d00578081fd5b5051919050565b8054600090600181811c9080831680611d2157607f831692505b6020808410821415611d4157634e487b7160e01b86526022600452602486fd5b818015611d555760018114611d6657611d93565b60ff19861689528489019650611d93565b60008881526020902060005b86811015611d8b5781548b820152908501908301611d72565b505084890196505b50505050505092915050565b6000611011611dae8386611d07565b84611d07565b6020815260008251806020840152611dd3816040850160208701611ec0565b601f01601f19169190910160400192915050565b6020808252600d908201526c13dddb995c881a5b9d985b1a59609a1b604082015260600190565b6020808252818101527f4f776e61626c653a2063616c6c6572206973206e6f7420746865206f776e6572604082015260600190565b604051601f8201601f1916810167ffffffffffffffff81118282101715611e6c57611e6c611f27565b604052919050565b600067ffffffffffffffff821115611e8e57611e8e611f27565b50601f01601f191660200190565b60008219821115611ebb57634e487b7160e01b81526011600452602481fd5b500190565b60005b83811015611edb578181015183820152602001611ec3565b838111156118b55750506000910152565b600181811c90821680611f0057607f821691505b60208210811415611f2157634e487b7160e01b600052602260045260246000fd5b50919050565b634e487b7160e01b600052604160045260246000fd5b6001600160a01b0381168114610ab357600080fdfea2646970667358221220979c3dd99cf012b7451adc3169bfb05b22174922d388e1f40fa0dea4abcf5ac864736f6c63430008040033",
  "devdoc": {
    "kind": "dev",
    "methods": {
      "allowance(address,address)": {
        "details": "See {IERC20-allowance}."
      },
      "approve(address,uint256)": {
        "details": "See {IERC20-approve}. Requirements: - `spender` cannot be the zero address."
      },
      "balanceOf(address)": {
        "details": "See {IERC20-balanceOf}."
      },
      "decimals()": {
        "details": "Returns the number of decimals used to get its user representation. For example, if `decimals` equals `2`, a balance of `505` tokens should be displayed to a user as `5,05` (`505 / 10 ** 2`). Tokens usually opt for a value of 18, imitating the relationship between Ether and Wei. This is the value {ERC20} uses, unless this function is overridden; NOTE: This information is only used for _display_ purposes: it in no way affects any of the arithmetic of the contract, including {IERC20-balanceOf} and {IERC20-transfer}."
      },
      "decreaseAllowance(address,uint256)": {
        "details": "Atomically decreases the allowance granted to `spender` by the caller. This is an alternative to {approve} that can be used as a mitigation for problems described in {IERC20-approve}. Emits an {Approval} event indicating the updated allowance. Requirements: - `spender` cannot be the zero address. - `spender` must have allowance for the caller of at least `subtractedValue`."
      },
      "increaseAllowance(address,uint256)": {
        "details": "Atomically increases the allowance granted to `spender` by the caller. This is an alternative to {approve} that can be used as a mitigation for problems described in {IERC20-approve}. Emits an {Approval} event indicating the updated allowance. Requirements: - `spender` cannot be the zero address."
      },
      "name()": {
        "details": "Returns the name of the token."
      },
      "owner()": {
        "details": "Returns the address of the current owner."
      },
      "renounceOwnership()": {
        "details": "Leaves the contract without owner. It will not be possible to call `onlyOwner` functions anymore. Can only be called by the current owner. NOTE: Renouncing ownership will leave the contract without an owner, thereby removing any functionality that is only available to the owner."
      },
      "symbol()": {
        "details": "Returns the symbol of the token, usually a shorter version of the name."
      },
      "totalSupply()": {
        "details": "See {IERC20-totalSupply}."
      },
      "transfer(address,uint256)": {
        "details": "See {IERC20-transfer}. Requirements: - `recipient` cannot be the zero address. - the caller must have a balance of at least `amount`."
      },
      "transferFrom(address,address,uint256)": {
        "details": "See {IERC20-transferFrom}. Emits an {Approval} event indicating the updated allowance. This is not required by the EIP. See the note at the beginning of {ERC20}. Requirements: - `sender` and `recipient` cannot be the zero address. - `sender` must have a balance of at least `amount`. - the caller must have allowance for ``sender``'s tokens of at least `amount`."
      },
      "transferOwnership(address)": {
        "details": "Transfers ownership of the contract to a new account (`newOwner`). Can only be called by the current owner."
      }
    },
    "version": 1
  },
  "userdoc": {
    "kind": "user",
    "methods": {},
    "version": 1
  },
  "storageLayout": {
    "storage": [
      {
        "astId": 7,
        "contract": "contracts/BCRAvatar.sol:BCRAvatar",
        "label": "_owner",
        "offset": 0,
        "slot": "0",
        "type": "t_address"
      },
      {
        "astId": 1382,
        "contract": "contracts/BCRAvatar.sol:BCRAvatar",
        "label": "_balances",
        "offset": 0,
        "slot": "1",
        "type": "t_mapping(t_address,t_uint256)"
      },
      {
        "astId": 1388,
        "contract": "contracts/BCRAvatar.sol:BCRAvatar",
        "label": "_allowances",
        "offset": 0,
        "slot": "2",
        "type": "t_mapping(t_address,t_mapping(t_address,t_uint256))"
      },
      {
        "astId": 1390,
        "contract": "contracts/BCRAvatar.sol:BCRAvatar",
        "label": "_totalSupply",
        "offset": 0,
        "slot": "3",
        "type": "t_uint256"
      },
      {
        "astId": 1392,
        "contract": "contracts/BCRAvatar.sol:BCRAvatar",
        "label": "_name",
        "offset": 0,
        "slot": "4",
        "type": "t_string_storage"
      },
      {
        "astId": 1394,
        "contract": "contracts/BCRAvatar.sol:BCRAvatar",
        "label": "_symbol",
        "offset": 0,
        "slot": "5",
        "type": "t_string_storage"
      },
      {
        "astId": 3836,
        "contract": "contracts/BCRAvatar.sol:BCRAvatar",
        "label": "baseURI",
        "offset": 0,
        "slot": "6",
        "type": "t_string_storage"
      },
      {
        "astId": 3840,
        "contract": "contracts/BCRAvatar.sol:BCRAvatar",
        "label": "donations",
        "offset": 0,
        "slot": "7",
        "type": "t_mapping(t_address,t_uint256)"
      },
      {
        "astId": 3844,
        "contract": "contracts/BCRAvatar.sol:BCRAvatar",
        "label": "avatars",
        "offset": 0,
        "slot": "8",
        "type": "t_mapping(t_address,t_string_storage)"
      },
      {
        "astId": 3848,
        "contract": "contracts/BCRAvatar.sol:BCRAvatar",
        "label": "profiles",
        "offset": 0,
        "slot": "9",
        "type": "t_mapping(t_address,t_string_storage)"
      },
      {
        "astId": 3853,
        "contract": "contracts/BCRAvatar.sol:BCRAvatar",
        "label": "avatarNFTs",
        "offset": 0,
        "slot": "10",
        "type": "t_mapping(t_address,t_struct(AvatarNFT)3771_storage)"
      },
      {
        "astId": 3857,
        "contract": "contracts/BCRAvatar.sol:BCRAvatar",
        "label": "contracts",
        "offset": 0,
        "slot": "11",
        "type": "t_mapping(t_address,t_bool)"
      }
    ],
    "types": {
      "t_address": {
        "encoding": "inplace",
        "label": "address",
        "numberOfBytes": "20"
      },
      "t_bool": {
        "encoding": "inplace",
        "label": "bool",
        "numberOfBytes": "1"
      },
      "t_mapping(t_address,t_bool)": {
        "encoding": "mapping",
        "key": "t_address",
        "label": "mapping(address => bool)",
        "numberOfBytes": "32",
        "value": "t_bool"
      },
      "t_mapping(t_address,t_mapping(t_address,t_uint256))": {
        "encoding": "mapping",
        "key": "t_address",
        "label": "mapping(address => mapping(address => uint256))",
        "numberOfBytes": "32",
        "value": "t_mapping(t_address,t_uint256)"
      },
      "t_mapping(t_address,t_string_storage)": {
        "encoding": "mapping",
        "key": "t_address",
        "label": "mapping(address => string)",
        "numberOfBytes": "32",
        "value": "t_string_storage"
      },
      "t_mapping(t_address,t_struct(AvatarNFT)3771_storage)": {
        "encoding": "mapping",
        "key": "t_address",
        "label": "mapping(address => struct BCRAvatar.AvatarNFT)",
        "numberOfBytes": "32",
        "value": "t_struct(AvatarNFT)3771_storage"
      },
      "t_mapping(t_address,t_uint256)": {
        "encoding": "mapping",
        "key": "t_address",
        "label": "mapping(address => uint256)",
        "numberOfBytes": "32",
        "value": "t_uint256"
      },
      "t_string_storage": {
        "encoding": "bytes",
        "label": "string",
        "numberOfBytes": "32"
      },
      "t_struct(AvatarNFT)3771_storage": {
        "encoding": "inplace",
        "label": "struct BCRAvatar.AvatarNFT",
        "members": [
          {
            "astId": 3766,
            "contract": "contracts/BCRAvatar.sol:BCRAvatar",
            "label": "nft",
            "offset": 0,
            "slot": "0",
            "type": "t_address"
          },
          {
            "astId": 3768,
            "contract": "contracts/BCRAvatar.sol:BCRAvatar",
            "label": "tokenId",
            "offset": 0,
            "slot": "1",
            "type": "t_uint256"
          },
          {
            "astId": 3770,
            "contract": "contracts/BCRAvatar.sol:BCRAvatar",
            "label": "isERC721",
            "offset": 0,
            "slot": "2",
            "type": "t_bool"
          }
        ],
        "numberOfBytes": "96"
      },
      "t_uint256": {
        "encoding": "inplace",
        "label": "uint256",
        "numberOfBytes": "32"
      }
    }
  }
}